:020000040800F2
:10000000704E002001010008090100080B010008E2
:100010000D0100080F010008110100080000000098
:1000200000000000000000000000000013010008B4
:100030001501000800000000170100081901000860
:100040001B0100081B0100081B0100081B01000820
:100050001B0100081B0100081B0100081B01000810
:100060001B0100081B0100081B010008B10C00085F
:10007000D10C0008F10C0008110D0008310D00082A
:10008000510D0008710D00081B0100081B0100083C
:100090001B0100081B0100081B0100081B010008D0
:1000A0001B0100081B0100081B0100081B010008C0
:1000B0008D3600081B0100081D3900081B010008CF
:1000C0001B0100081B0100081B0100081B010008A0
:1000D0001B0100081B010008253F00081B01000848
:1000E0001B0100081B0100081B010008DFF80CD0F1
:1000F00000F03EFB00480047C14B0008704E002056
:100100000648804706480047FEE7FEE7FEE7FEE7B1
:10011000FEE7FEE7FEE7FEE7FEE7FEE74533000801
:10012000ED0000080649074A0868504343F23902C7
:10013000104408604008704701490860704700009B
:10014000540000206D4EC64140EA01039B0703D0D6
:1001500009E008C9121F08C0042AFAD203E011F806
:10016000013B00F8013B521EF9D27047421C10F8C7
:10017000011B0029FBD1801A704730B480EA0102CC
:1001800002F0004530F0004221F0004013D090B161
:10019000C30DD40DC2F31601C0F31600E41A41F4E6
:1001A000000140F400027D34914201D3641C00E060
:1001B0004900002C02DA30BC002070474FF40000E8
:1001C0000023914201D3891A034340084FEA4101B9
:1001D000F7D151B1914202D14FF0004105E002D276
:1001E0004FF0010101E06FF0010103EBC45028441E
:1001F00030BC00F051B92DE9FE4F81EA030404F050
:10020000004421F0004100944FF0000B23F0004324
:1002100050EA01045ED052EA03045BD0C3F30A54EF
:10022000C1F30A552C44A4F2F3340194A0FB025408
:10023000C1F3130141F48011C3F3130343F480139A
:1002400001FB024400FB034E840A970A44EA8154EE
:1002500047EA8357A4FB076802958D0A05FB0785CB
:100260004FEA932C04FB0C542705029D4FEA0658D5
:1002700047EA1637B5EB08056EEB070C870E920EB2
:1002800047EA811742EA8312A7FB0201B6EB0B0192
:1002900064EB00042B0D43EA0C335E1844EB1C5056
:1002A000DA465146E7FB0201C5F313044FEA0B336C
:1002B00043EA14534FEA0432019C43EA0603A4F1D3
:1002C0000C040294009CCDE900B400F02BF903B0BB
:1002D000BDE8F08F00200146F9E72DE9F04D81EAF5
:1002E000030404F0004B21F0004514464FF0000ACF
:1002F00023F0004150EA050220D054EA01021DD04B
:10030000C5F30A570246C5F31303C1F31300C1F343
:100310000A5640F4801543F48013A7EB0608101B1F
:10032000D64608F2FD3873EB050002D308F1010848
:1003300001E092185B41B8F1000F03DA002001469A
:10034000BDE8F08D00204FF48011064684460EE093
:10035000171B73EB050705D3121B63EB050306435D
:100360004CEA010C49084FEA300092185B4150EA10
:100370000107EDD152EA030012D082EA040083EAB9
:100380000501084305D0101BAB4106D20122002312
:1003900006E000224FF0004302E06FF0010253102C
:1003A0001AEB06004CEB085110EB0A0041EB0B0175
:1003B000BDE8F04D00F0A7B8C10F80EAE070084436
:1003C000CA079623002100F070B80EB540F2334101
:1003D00002910021CDE900110A460B4600F0A2F877
:1003E00003B000BD00F0004230F000400AD0C10D63
:1003F00001F56071C0F3160042EA0151C2084007DE
:100400001143704700200146704730B50B46014646
:1004100000202022012409E021FA02F59D4205D3A3
:1004200003FA02F5491B04FA02F52844151EA2F14D
:100430000102F1DC30BD2DE9F05F05460020924657
:100440009B4688460646814640241BE02846414696
:100450004746224600F0ADF953465A46C01A91412C
:1004600010D311461846224600F094F92D1A67EB76
:1004700001084F4622460120002100F08BF917EBBE
:1004800000094E41201EA4F10104DFDC484631463C
:100490002A464346BDE8F09F0029A8BF7047401C8C
:1004A000490008BF20F00100704710B4B0FA80FC8A
:1004B00000FA0CF050EA010404BF10BC704749B1C7
:1004C000CCF1200421FA04F411FA0CF118BF012137
:1004D00021430843A3EB0C01CB1D4FEA00614FEA17
:1004E000102042BF002010BC704700EBC3501044E6
:1004F0000029A4BF10BC7047401C490008BF20F071
:10050000010010BC704710B5141E73F1000408DA26
:10051000401C41F1000192185B411A4301D120F0C7
:10052000010010BD2DE9F04D92469B4611B1B1FA84
:1005300081F202E0B0FA80F22032904600F02AF90F
:1005400004460F4640EA0A0041EA0B0153465A4668
:10055000084313D0114653EA010019D0C8F14002F4
:10056000504600F026F905460E465046594642468A
:1005700000F010F9084305D0012004E02046394678
:10058000BDE8F08D0020054346EAE0762C43374372
:100590000A986305E40AA0EB08000022FD0A44EA79
:1005A00047540A3002D500200146E9E70105101939
:1005B0006941DDE9084500196941BDE8F04DA2E750
:1005C0002DE9FE4F804681EA0300C00F0C460090E3
:1005D00021F0004123F00045B8EB0200A94105D20B
:1005E0004046214690461C460B46024623F00040FA
:1005F000104347D0270DC7F30A00C3F30A510290F6
:10060000401A019040286BDAC3F3130040F4801BBA
:100610000098924620B10023D2EB030A63EB0B0B48
:1006200001985946C0F14002504600F0B3F8064622
:100630000D4650465946019A00F0CBF810EB0800E1
:100640006141002487EA115284EAE7731A4340D0DB
:10065000009A62B3019A012A4FEA075215DC001B87
:1006600061EB02014FF0004202EA0752CDE900427D
:10067000001C41F5801132462B46FFF753FF03B0B3
:10068000BDE8F08F40462146F9E7001B61EB02010F
:10069000001C41F5801300185B412018A2F50017DB
:1006A00047EB030140EAD570B6196D4111E06D08C2
:1006B0004FEA360645EAC0754FEA0752001B61EB68
:1006C0000201001C41F5801149084FEA3000001971
:1006D000514132462B4603B0BDE8F04FFFF713BF40
:1006E0000098012240000023D0EB020263EBE0738C
:1006F000009821464FEAE074B8EB000061EB04017A
:10070000E9E783F000435BE781F0004158E7C1F37C
:100710000A52C1F3130140F2FF3341F480119A42AF
:1007200002DA00200146704740F233439A42A2F2B7
:10073000334202DC524200F03CB800F02BB800001B
:1007400030B5041E71F1000404DB4FF00044404258
:1007500064EB0101141E73F1000405DB1C464FF02D
:100760000043524263EB0403994208BF904230BDFC
:10077000064C074D06E0E06840F0010394E80700EE
:1007800098471034AC42F6D3FFF7B4FCB40F01081D
:10079000D40F0108202A04DB203A00FA02F10020DD
:1007A00070479140C2F1200320FA03F319439040AF
:1007B0007047202A04DB203A21FA02F0002170471A
:1007C00021FA02F3D040C2F12002914008431946B9
:1007D0007047202A06DBCB17203A41FA02F043EAA1
:1007E000E07306E041FA02F3D040C2F120029140EA
:1007F00008431946704721B1826842F001028260C5
:1008000003E0826822F001028260704721B18268B1
:1008100042F48072826003E0826822F48072826017
:100820007047014600208A6802F004020AB10120E4
:1008300000E000207047014600208A6802F00802AC
:100840000AB1012000E000207047000030B50246E8
:100850000020002350680F4C20400D790C6844EABA
:1008600005242043506090680B4C2040D1E902548D
:100870002C434D7944EA450420439060D06A20F42B
:1008800070000C7C641EE4B2234340EA0350D06243
:1008900030BD0000FFFEF0FFFDF7F1FFF0B50446AC
:1008A0000D4600200021092D11DDE068A5F10A06A2
:1008B00006EB4607072606FA07F18843A5F10A0664
:1008C00006EB460603FA06F10843E0600CE02069F7
:1008D00005EB4507072606FA07F1884305EB4506B1
:1008E00003FA06F108432061072A0FDA606B561EEF
:1008F00006EB86071F2606FA07F18843561E06EB0D
:10090000860605FA06F10843606322E00D2A0FDA35
:10091000206BD61F06EB86071F2606FA07F18843D1
:10092000D61F06EB860605FA06F10843206310E0A1
:10093000E06AA2F10D0606EB86071F2606FA07F10C
:100940008843A2F10D0606EB860605FA06F1084378
:10095000E062F0BD816841F008018160704721B11B
:10096000826842F4A002826003E0826822F4A0025E
:1009700082607047816841F0040181607047000027
:1009800030B5A1B00446207801280FD180224C490F
:1009900001A8FFF7D9FB0020207001A8FFF7E6FBB4
:1009A00085B2294601A803F081FB86E02078022861
:1009B00010D180224249803101A8FFF7C5FB0020F9
:1009C000207001A8FFF7D2FB85B2294601A803F0E9
:1009D0006DFB72E0207803280FD18022394901A8ED
:1009E000FFF7B2FB0020207001A8FFF7BFFB85B224
:1009F000294601A803F05AFB5FE02078042810D1B3
:100A000080223049803101A8FFF79EFB0020207032
:100A100001A8FFF7ABFB85B2294601A803F046FB0E
:100A20004BE0207805280ED18022274901A8FFF746
:100A30008BFB002401A8FFF799FB85B2294601A88A
:100A400003F034FB39E02078062810D180221E49BB
:100A5000803101A8FFF778FB0020207001A8FFF784
:100A600085FB85B2294601A803F020FB25E020780C
:100A700007280ED18022154901A8FFF765FB002445
:100A800001A8FFF773FB85B2294601A803F00EFB0E
:100A900013E02078082810D180220C49803101A869
:100AA000FFF752FB0020207001A8FFF75FFB85B223
:100AB000294601A803F0FAFA00BF21B030BD0000BA
:100AC000205100082052000820530008205400083C
:100AD00000B591B001214FF4027001F0D9FC012161
:100AE000084601F0B5FC0320ADF8400000208DF869
:100AF000430010A9694800F043FE694800F060F91E
:100B000068480590684806900020079010200890DB
:100B10000020099080200A9040000B9080000C90EB
:100B200020200D9000020E9000200F9005A95C4837
:100B300000F006FA01215A4800F036F94FF400405F
:100B400001F07AFC0020009001208DF804000020C4
:100B50008DF805004FF460200290002003901020D3
:100B60008DF8100069464F484C38FFF76FFE072399
:100B7000012208214B484C38FFF790FE0723022240
:100B8000082148484C38FFF789FE07230322082133
:100B900044484C38FFF782FE0723042208214148CD
:100BA0004C38FFF77BFE0723052208213D484C38CF
:100BB000FFF774FE0723062208213A484C38FFF756
:100BC0006DFE07231A46082136484C38FFF766FEAB
:100BD00007230822114633484C38FFF75FFE0723EE
:100BE000092211462F484C38FFF758FE07230A22E6
:100BF00009212C484C38FFF751FE07230B2209210D
:100C000028484C38FFF74AFE07230C2209212548C3
:100C10004C38FFF743FE07230D22092121484C38A9
:100C2000FFF73CFE07230E2209211E484C38FFF730
:100C300035FE07230F2209211A484C38FFF72EFEF4
:100C400007231022092117484C38FFF727FE0121FE
:100C500014484C38FFF7DAFD012112484C38FFF7F1
:100C6000CAFD10484C38FFF775FE00BF0D484C38E0
:100C7000FFF7E1FD0028F9D10A484C38FFF77AFE6A
:100C800000BF08484C38FFF7CCFD0028F9D10121FE
:100C900004484C38FFF763FE11B000BD000C014062
:100CA000080002404C240140C83C0020704700006E
:100CB00010B50548006800F00F0403484460204662
:100CC000FFF7F4FF10BD0000000002407047000075
:100CD00010B505480068C0F30314200102494860BC
:100CE0002046FFF7F3FF10BD0000024070470000F0
:100CF00010B505480068C0F303242002024948608B
:100D00002046FFF7F3FF10BD0000024070470000CF
:100D100010B505480068C0F3033420030249486059
:100D20002046FFF7F3FF10BD0000024070470000AF
:100D300010B505480068C0F3034420040249486028
:100D40002046FFF7F3FF10BD00000240704700008F
:100D500010B505480068C0F30354200502494860F7
:100D60002046FFF7F3FF10BD00000240704700006F
:100D700010B505480068C0F30364200602494860C6
:100D80002046FFF7F3FF10BD0000024000F0805145
:100D900011B10349086001E0024948607047000052
:100DA000040402400000024021B1026842F0010246
:100DB000026004E002684FF6FE731A40026070475A
:100DC00001684FF6FE721140016000210160416030
:100DD0008160C1604B49884208D14A490839496855
:100DE00041F00F01474A083A51608AE04549143101
:100DF000884208D143490839496841F0F001414A25
:100E0000083A51607DE03F492831884208D13D4988
:100E10000839496841F470613A4A083A516070E013
:100E200038493C31884208D136490839496841F48B
:100E30007041344A083A516063E032495031884287
:100E400008D130490839496841F470212D4A083ADF
:100E5000516056E02B496431884208D1294908394C
:100E6000496841F47001274A083A516049E0254930
:100E70007831884208D123490839496841F07061C6
:100E8000204A083A51603CE01F49884206D1011FC0
:100E9000096841F00F01021F116032E01A49143154
:100EA000884208D11849091F096841F0F001164A23
:100EB000121F116025E014492831884208D11249D7
:100EC000091F096841F470610F4A121F116018E090
:100ED0000D493C31884208D10B49091F096841F48A
:100EE0007041094A121F11600BE0074950318842D6
:100EF00007D10549091F096841F47021024A121FF0
:100F0000116070470800024008040240014648682A
:100F100080B2704701460020002201F0805313B1D7
:100F2000054B1A6801E0054B1A6802EA01030BB190
:100F3000012000E000207047000402400000024051
:100F400010B50022026847F6F0739A430C6A8B686A
:100F500023430C6923434C6923438C692343CC69A5
:100F600023434C6A23438C6A23431A430260CB68B1
:100F700043600B6883604B68C36010BD416070477D
:100F800066480078401CC0B264490870644909781A
:100F9000884259DB0020614908706148007868B9CF
:100FA00028205F4908705F480078401CC0B25D4946
:100FB0000870032807DB0020087004E05848007818
:100FC000401E5749087000203BE05649097811B986
:100FD0005549497900E00021C0EB0013534A02EB68
:100FE000C3034F4A1278521E02EB420299544D49F4
:100FF0000978012902D14C49897900E00021C0EB30
:1010000000134A4A02EBC303454A1278521E02EB10
:1010100042021A44517043490978022902D14249D7
:10102000C97900E00021C0EB0013404A02EBC30382
:101030003B4A1278521E02EB42021A449170411C44
:10104000C8B27828C1DB26E0002022E00022C0EBF5
:101050000013364901EBC301354B1B7803EB430307
:10106000CA54C0EB0013314901EBC301304B1B786C
:1010700003EB430319444A70C0EB00132B4901EB07
:10108000C3012B4B1B7803EB430319448A70411CAB
:10109000C8B27828DADB002038E02249097811B993
:1010A0002149497900E00021C0EB00131F4A02EBFF
:1010B000C3021A4B1B7803EB4303D1541949097837
:1010C000012902D11849897900E00021C0EB001301
:1010D000164A02EBC302114B1B7803EB43031A447D
:1010E000517010490978022902D10F49C97900E0ED
:1010F0000021C0EB00130D4A02EBC302074B1B7823
:1011000003EB43031A449170411CC8B27828C4DB36
:10111000024800780649087070470000200000204F
:101120002100002022000020283A00206E0100202B
:101130002300002030B52F4A2F48407800B906E040
:101140002D484078012801D12C4A00E02C4A00208B
:101150004DE0002147E000EB8003DB0003EB43039D
:10116000134401EB41041B5D234C647B2341C0EB22
:101170000015244C04EBC504C1F1270505EB45051A
:10118000635500EB8003DB0003EB4303134401EBE7
:10119000410423445B78184C647B2341C0EB001569
:1011A000184C04EBC504C1F1270505EB45052C449B
:1011B000637000EB8003DB0003EB4303134401EB9C
:1011C000410423449B780C4C647B2341C0EB001505
:1011D0000C4C04EBC504C1F1270505EB45052C4477
:1011E000A3704B1CD9B22829B5DB411CC8B27828A2
:1011F000AFDB30BDF4660008283A0020349F0008B9
:1012000074D700086E01002010B500F003F800F05C
:10121000BBF810BD70B55B48007D401CC0B2594999
:101220000875497D884202DB0020564908755549FA
:101230000A7D1C3131F812100A0A52490B7D1C310B
:1012400031F8131042EA01214FF2F00211400A1165
:101250004C490B7D1C3131F813100B0A49490C7DA8
:101260001C3131F8141043EA012140F60F73194084
:1012700042EA01114CF6CC4211408A1041490B7DE3
:101280001C3131F813100B0A3E490C7D1C3131F82A
:10129000141043EA01214FF2F00319400B113949B0
:1012A0000C7D1C3131F814100C0A36490D7D1C31AF
:1012B00031F8151044EA012140F60F74214043EA49
:1012C000011143F23333194042EA81014AF6AA225E
:1012D00011404A102B490B7D1C3131F813100B0AB9
:1012E00028490C7D1C3131F8141043EA01214FF2DA
:1012F000F00319400B1123490C7D1C3131F81410F7
:101300000C0A20490D7D1C3131F8151044EA0121E9
:1013100040F60F74214043EA01114CF6CC431940CA
:101320008B1018490C7D1C3131F814100C0A15492A
:101330000D7D1C3131F8151044EA01214FF2F00403
:1013400021400C110F490D7D1C3131F815100D0A8B
:101350000C490E7D1C3131F8161045EA012140F68A
:101360000F75294044EA011143F23334214043EA26
:10137000810145F25553194042EA410001F058FA03
:1013800070BD00006000002010B50B48007EC0EB6F
:1013900000110A4800EBC1040748007E401CC0B29F
:1013A00005490876497E884202DB0020024908761A
:1013B000204601F047F910BD600000206E010020BA
:1013C0002DE9F84105460E4617461C46DDF81C80FF
:1013D0000AE0CDF8008023783A463146284600F0EE
:1013E00025F9A81DC5B2641C20780028F1D1BDE8FC
:1013F000F881000010B5002027E000211CE0002348
:10140000C0EB0014124A02EBC40201EB4104135575
:10141000C0EB00140E4A02EBC40201EB410422446B
:101420005370C0EB00140A4A02EBC40201EB410402
:10143000224493704A1CD1B22829E0DB00220449DF
:10144000F23921F81020411CC8B27828D5DB10BD34
:101450006E0100202DE9F04F0746884691469A46D6
:10146000DDF824B0A9EB070046B2AAEB080045B2AC
:10147000002E6BDB002D33DBAE4218DBA5EB6600E4
:1014800044B211E05A46414638460A9B00F034F90E
:10149000002C05DD08F1010000F0FF08A01B44B29C
:1014A000781CC7B2601944B24F45EBDDBBE0A6EB38
:1014B000650044B211E05A46414638460A9B00F0A6
:1014C0001BF9002C03DD781CC7B2601B44B208F185
:1014D000010000F0FF08A01944B2D045EBDDA2E006
:1014E000684245B2AE4218DBA5EB660044B211E09B
:1014F0005A46414638460A9B00F0FEF8002C05DDAE
:10150000A8F1010000F0FF08A01B44B2781CC7B28C
:10151000601944B24F45EBDD85E0A6EB650044B2AF
:1015200011E05A46414638460A9B00F0E5F8002C87
:1015300003DD781CC7B2601B44B2A8F1010000F0C3
:10154000FF08A01944B2D045EBDA6CE0704246B215
:10155000002D33DBAE4218DBA5EB660044B211E090
:101560005A46414638460A9B00F0C6F8002C05DD75
:1015700008F1010000F0FF08A01B44B2781EC7B2BA
:10158000601944B24F45EBDA4DE0A6EB650044B27A
:1015900011E05A46414638460A9B00F0ADF8002C4F
:1015A00003DD781EC7B2601B44B208F1010000F0F1
:1015B000FF08A01944B2D045EBDD34E0684245B2E3
:1015C000AE4218DBA5EB660044B211E05A46414634
:1015D00038460A9B00F090F8002C05DDA8F10100C8
:1015E00000F0FF08A01B44B2781EC7B2601944B2D5
:1015F0004F45EBDA17E0A6EB650044B211E05A461E
:10160000414638460A9B00F077F8002C03DD781E2F
:10161000C7B2601B44B2A8F1010000F0FF08A01996
:1016200044B2D045EBDABDE8F08F00002DE9F04F71
:1016300005460E4691461F46DDF824B0782D05DAA2
:10164000282E03DA202F01DB7E2F01DDBDE8F08F8D
:1016500000244AE02819782800DBF7E7A7F12000EA
:1016600000EB4000234901EB8000012101EB440124
:10167000415CA7F1200000EB40001E4A02EB800015
:1016800010F8140041EA002A4FF0000828E006EBA9
:101690000800282800DBD9E70AF4004048B106EB2F
:1016A0000802D1B22A19D0B25B464A4600F024F8AB
:1016B0000EE0B9F1000F01D1012300E000231A462A
:1016C00006EB0803D9B22B19D8B25B4600F014F828
:1016D0004FF6FF7000EA4A0A08F1010000F0FF0827
:1016E000B8F10C0FD3DB601CC4B2062CB2DB00BF18
:1016F000ACE700008062000870B5782801DA28297C
:1017000000DB70BDEAB11D78C0EB00161B4C04EB8A
:10171000C60401EB4106A5555D78C0EB0016174CD9
:1017200004EBC60401EB4106344465709D78C0EBC0
:101730000016124C04EBC60401EB41063444A570BC
:101740001AE00025C0EB00160C4C04EBC60401EBBC
:101750004106A555C0EB0016084C04EBC60401EB8E
:10176000410634446570C0EB0016044C04EBC6041B
:1017700001EB41063444A57000BFC2E76E010020B2
:101780002DE9F04102460025002600200023002418
:10179000002791F803C00CF00F0591F803C00CF07E
:1017A000100CBCF1000F03D091F802C04CEA050503
:1017B00091F800C0BCF1000F31D0146800202BE07C
:1017C0004FF0010C0CFA00F3B1F800C00CEA03066C
:1017D0009E4220D183004FF00F0C0CFA03F7BC435C
:1017E00005FA03FC4CEA040491F803C0BCF1280F8D
:1017F00006D14FF0010C0CFA00FCC2F814C00AE04C
:1018000091F803C0BCF1480F05D14FF0010C0CFA60
:1018100000FCC2F810C0401C0828D1D31460B1F8F5
:1018200000C0BCF1FF0F34DD546800202EE000F151
:10183000080C4FF0010808FA0CF3B1F800C00CEAEC
:1018400003069E4221D183004FF00F0C0CFA03F7E0
:10185000BC4305FA03FC4CEA040491F803C0BCF154
:10186000280F05D100F1080C08FA0CF8C2F8148012
:1018700091F803C0BCF1480F07D100F1080C4FF0FC
:10188000010808FA0CF8C2F81080401C0828CED3D2
:101890005460BDE8F0810000F0B50A460023002442
:1018A0000021002500F00046B6F1004F02D11D4E88
:1018B000F16901E01B4E7168C0F3034583B200F487
:1018C0004016B6F5401F08D121F07061154E7668BC
:1018D00026F07066134F7E6012E000F48016B6F5B5
:1018E000801F06D1032606FA05F4A14341F070617A
:1018F00006E0460D360103FA06F6B14341F0706189
:1019000022B1460D360103FA06F6314300F00046D7
:10191000B6F1004F02D1034EF16101E0014E71605A
:10192000F0BD000000000140416170470161704757
:101930007047000010B504460220FFF7EBFA0028BC
:101940003ED000202149087021480088204949885C
:1019500008441F49898808441D49C98808441C490E
:10196000098908441A494989084419498989084458
:101970001749C9890844C0F3CF0020801448008A61
:101980001349498A08441249898A08441049C98A76
:1019900008440F49098B08440D49498B08440C49F8
:1019A000898B08440A49C98B0844C0F3CF00608082
:1019B0000220FFF7EBF901210648FEF7D0FF04E013
:1019C00002480078401C0149087010BD3D0000200D
:1019D000C83C00200024014010B51448807898B11C
:1019E0001248807802280FD01048807801280BD048
:1019F0000E488078032807D00C488078042803D04C
:101A00000A488078052809D100200849487001203B
:101A1000087006208870FFF7EDFC10BD0348007CBD
:101A200008B9FFF7ADFA00BFF7E70000283A002039
:101A300000B587B06A48006802906A48807801283B
:101A40000BD168484078032801D1002002E06548A6
:101A50004078401C6349487047E06248807850B93C
:101A60006048407808B9032002E05E484078401E94
:101A70005C49487039E05B488078042835D1594882
:101A800001784078401C0844564908700620887048
:101A9000FFF7B0FC53484078032821D1FF2051497B
:101AA000487100214F488171C17100204D498870F3
:101AB0000846406920F0E00048610846406920F48B
:101AC000E060486101F0D0F84648401D01F03AF866
:101AD0000A204449C8730846406920F0080048615C
:101AE00000204049487007B000BD06203D4988707D
:101AF00008464078032839D13BA103A802F0C6FB71
:101B000002A8009037484078012801D0012000E069
:101B10000020024603AB02210020FFF751FC35A153
:101B200003A802F0B3FB02A800902E4840780228D8
:101B300001D0012000E00020024603AB0E2100206E
:101B4000FFF73EFC2EA103A802F0A0FB02A8009024
:101B500024484078032801D0012000E000200246FC
:101B600003AB1A210020FFF72BFC37E028A103A8C4
:101B700002F08CFB02A800901A48407808B10120BE
:101B800000E00020024603AB02210020FFF718FC12
:101B900015A103A802F07AFB02A800901148407832
:101BA000012801D0012000E00020024603AB0E21F5
:101BB0000020FFF705FC0FA103A802F067FB02A8B5
:101BC000009008484078022801D0012000E0002061
:101BD000024603AB1A210020FFF7F2FB00BF82E7A9
:101BE000004E0008283A0020322E50696374757246
:101BF00065730000332E4D7573696320202000004B
:101C0000342E47616D6520536E616B6500000000E6
:101C1000312E5061696E74696E6700001CB54448CE
:101C2000807801280BD142480079282801D1002072
:101C300002E03F480079401C3D4908713CE03C48C7
:101C4000807850B93A48007908B9282002E038482D
:101C50000079401E364908712EE035488078022808
:101C60000AD13348C07808B9782002E03048C078FB
:101C7000401E2F49C8701FE02D48807803280BD1E3
:101C80002B48C078782801D1002002E02848C0788D
:101C9000401C2749C8700FE025488078042803D0ED
:101CA00023488078052807D10120214908700620A3
:101CB0008870FFF79FFB1CBD06201D4988701D48DA
:101CC0000088401C80B21B490880322801DD0020BA
:101CD0000880174A1179D078531D0122FFF70CFDB7
:101CE0001348007B012802D1FFF784FB1BE010485A
:101CF000007B022807D10E4A517A107A531D012227
:101D0000FFF7FAFC0FE00A48007B03280BD10848D4
:101D1000401D0121441FCDE90010E37AA27A617AC7
:101D2000207AFFF797FB00200149087300BFC2E744
:101D3000283A00202400002010B51F48807818B1F0
:101D40001D48807802280BD11B484078022801D119
:101D5000002002E018484078401C1749487024E0F1
:101D600015488078012803D01348807803280AD1C9
:101D70001148407808B9022002E00F484078401E20
:101D80000D49487011E00C488078042803D00A48B7
:101D90008078052809D10020074948700120087083
:101DA00006208870FFF726FB10BD062002498870C8
:101DB000FFF7C0F900BFF7E7283A002000B587B069
:101DC0006948006802906948807801280BD167480B
:101DD0004078012801D1002002E064484078401C8E
:101DE000624948704AE06148807850B95F4840785D
:101DF00008B9012002E05D484078401E5B49487008
:101E00003CE05A488078042829D15848407898B94D
:101E10005748007800F00300022801DB002004E0AE
:101E20005348007800F00300401C5149097860F3E2
:101E300001014F48017021E04D4800780221B1EBCB
:101E4000101F01D1002003E0494800780009401C20
:101E50004749097860F30711454801700EE043488F
:101E6000807805280AD10020404948700120087078
:101E700006208870FFF7BEFA07B000BD06203B4978
:101E800088703CA103A802F001FA02A803AB01226A
:101E90000C2100900020FFF793FA3548007800F0FD
:101EA000030020B936A103A802F0F0F919E0304888
:101EB000007800F00300012804D132A103A802F049
:101EC000E5F90EE02A48007800F00300022804D16A
:101ED0002DA103A802F0DAF903E02CA103A802F077
:101EE000D5F902A800902148407808B1012000E00F
:101EF0000020024603AB0C213620FFF761FA24A133
:101F000003A802F0C3F902A803AB01221821009034
:101F10000020FFF755FA16480078000920B91FA1E4
:101F200003A802F0B3F90EE0114800780121B1EBEB
:101F3000101F04D11CA103A802F0A8F903E01DA101
:101F400003A802F0A3F902A80090084840780128ED
:101F500001D0012000E00020024603AB182136200A
:101F6000FFF72EFA00BF87E7044E0008283A00204A
:101F700028000020312E4D6F64653A2000000000DB
:101F80004F4646004F4E200043594300494E4700FC
:101F9000322E4D757369633A200000004A594C593E
:101FA0002020202000000000465A5944595A445924
:101FB0000000000053524B4C202020200000000065
:101FC00000B587B083480068029083488078042871
:101FD0001FD18148007DC0F3C00088B17E484078A1
:101FE00070B17D48406920F008007B4948610020BD
:101FF00048700846406920F010001030486108E041
:1020000001207549087006208870FFF7F3F907B0C2
:1020100000BD7148808AC0F3022030B1012810D081
:10202000022819D003282FD122E06B48807801289C
:1020300006D069488178406961F347106649486174
:1020400023E06548807830B163488178406961F366
:1020500047106149486118E05F488078032806D03E
:102060005D488178406961F347105B4948610CE045
:1020700059488078022806D057488178406961F332
:1020800047105549486100E000BF00BF5348007841
:10209000401CC0B2514908704F49C97B884213DBCC
:1020A00000204E4908704C48007DC0F3C00058B96C
:1020B0004948007DC0F34210032805DC4649097DEC
:1020C000C1F3421000F074FE4348007DC0F3C0002D
:1020D00000285FD04048406920F0E000A0303E4931
:1020E00048610846406920F4E06000F5A06048615E
:1020F0000846807802280AD10846407808B90120AD
:1021000002E035484078401C334948700EE03248C0
:10211000807803280AD130484078012801D1002076
:1021200002E02D484078401C2B49487006202A497F
:1021300088702BA103A802F0A9F802A803AB012222
:10214000022100900020FFF73BF928A103A802F02C
:102150009DF802A800902048407808B1012000E0D6
:102160000020024603AB0E210020FFF729F920A131
:1021700003A802F08BF802A80090174840780128C5
:1021800001D0012000E00020024603AB0E212420F4
:10219000FFF716F91048007DC0F30010C0B10E48DB
:1021A000406920F010000C4948610846406920F061
:1021B000E000A03048610846406920F4E06000F586
:1021C000A060486100F050FD0348401D00F0BAFCDB
:1021D00000BF1CE7084E0008283A00202600002017
:1021E00047616D652053746172743F004E4F00006B
:1021F0005945530010B50446207800F0030060B93B
:102200002078014660F3830121700020E070207186
:102210000021634801F0FFFB10BD207800F00300AF
:102220002178C1F38101884232D0207800F0030088
:1022300001282DD12078000920B1012808D00228DA
:1022400012D10BE0A820A07056485749086011E051
:102250008020A0705548544908600BE06220A070AF
:1022600053485149086005E0A820A0704D484E49E8
:10227000086000BF00BF0020E07020712078014698
:1022800060F3830121700121454801F0C4FB34E073
:10229000207800F003002178C1F3810188422CD01E
:1022A000207800F00300022827D12078000920B10F
:1022B000012808D002280DD10BE0A820A0703948D1
:1022C000394908600CE08020A07038483649086021
:1022D00006E005E0A820A07032483349086000BF3E
:1022E00000BF0020E07020712078014660F3830178
:1022F000217001212A4801F08EFB2079401C2071B9
:102300002179E078284A126832F81000C00AB1EB4F
:10231000400F43DD00202071E078401CC0B2E07027
:10232000A178884224DB0020E070207800F00300D0
:10233000022814D1207820F00C0020702078012190
:1023400001EB1010217860F3071121700320B0EB2E
:10235000111F08DC207820F0F000207003E02078C6
:1023600020F00300207000210D4801F054FB53E7DA
:10237000E0780D49096831F81000C0F30A0048B14F
:10238000E178094A126832F81110C1F30A0001F02D
:102390006DFA03E0002002493831088000BF3BE7B6
:1023A000000400400C4E0008300000205C4F000884
:1023B0005C50000870B5002100230F22C47804B3DC
:1023C000154C246804F4E064C4F5E064210AC1F10A
:1023D0000403CA40447804FA03F18478144021438A
:1023E00009010E4C0678A155047804F01F0501245C
:1023F000AC4005786D11AD0005F1E025C5F8004150
:1024000009E0047804F01F050124AC40044D06786F
:10241000761145F8264070BD0CED00E000E400E0C8
:1024200080E100E002490143024A11607047000068
:102430000000FA050CED00E001460020034A506858
:1024400020F44040084350607047000000100240F4
:1024500029B1064A52690243044B5A6104E0034A17
:1024600052698243014B5A617047000000100240DC
:1024700029B1064AD2690243044BDA6104E0034AF7
:10248000D2698243014BDA617047000000100240BC
:1024900029B1064A92690243044B9A6104E0034A57
:1024A00092698243014B9A6170470000001002401C
:1024B00030B500210022002400232D4D6D6805F069
:1024C0000C0121B1042905D0082923D105E0294DAB
:1024D000056022E0274D05601FE0254D6D6805F47D
:1024E0007012234D6D6805F48034022505EB92428D
:1024F0001CB9214D554305600BE01D4D6D6805F479
:1025000000351DB11C4D5543056002E0194D554382
:10251000056002E0174D056000BF00BF144D6D68F7
:1025200005F0F0010909154D6B5C0568DD4045605B
:102530000F4D6D6805F4E061090A104D6B5C45684C
:10254000DD4085600A4D6D6805F46051C90A0B4D88
:102550006B5C4568DD40C560054D6D6805F4404124
:10256000890B074D6B5CC568B5FBF3F5056130BDA4
:102570000010024000127A0000093D003E000020D9
:102580004E00002010B500F073F8002021E02C4927
:1025900011F8201021F0E001E031294A02F8201062
:1025A000114611F8201021F01F01093102F8201006
:1025B0000022234901EB8001CA701022204901EB5F
:1025C00080018A7000221E4901EB80014A70411C83
:1025D000C8B22828DBDB00201949091F0860401E0B
:1025E000C1F8A400002027E0154901EB8001C91CB7
:1025F000C0F1270202EB4203114AA43242F8231031
:102600000F4901EB8001891CC0F1270202EB420354
:102610000B4AA43202EB83025160094901EB8001AD
:10262000491CC0F1270202EB4203054AA43202EB27
:1026300083029160411CC8B22828D5DB10BD000080
:10264000443A002010B50446002007E014F8012B9E
:10265000064951F820100A70411CC8B27828F5DBF1
:10266000A8210248A83800F079F810BDE83A002007
:1026700000B591B0012141F21400FFF709FF0121DB
:102680000846FFF7E5FEE020ADF82C0018208DF895
:102690002F0003208DF82E000BA92D48FFF770F8AE
:1026A0001020ADF82C008DF82F0003208DF82E009F
:1026B0000BA92748FFF764F810212548FFF734F9E4
:1026C0004FF44040ADF830004FF48270ADF8320066
:1026D0000020ADF83400ADF836000120ADF8380028
:1026E0004002ADF83A000820ADF83C000020ADF8FB
:1026F0003E000720ADF840000CA9164800F0C5F8D0
:102700001548FEF75DFB13480C3000901020029036
:1027100000200490802005900020069007900890EB
:102720004FF48050099000200A9069460A48FEF74D
:1027300007FC00210848FEF737FB0122022105486B
:1027400000F098F80121034800F088F811B000BDAE
:1027500000080140003001403000024070B50546DD
:102760000C4600210548FEF71FFB04483038C563BE
:10277000446301210148FEF717FB70BD30000240A1
:1027800000B587B001218803FFF772FE0121082000
:10279000FFF77EFE4FF46040ADF8040018208DF87E
:1027A000070003208DF8060001A91F48FEF7E8FF87
:1027B0004FF48050ADF8040010208DF8070003207E
:1027C0008DF8060001A91848FEF7DAFF4FF4805192
:1027D0001548FFF7ABF84FF44040ADF808004FF450
:1027E0008270ADF80A004FF40060ADF80C000020D4
:1027F000ADF80E00ADF810004FF40070ADF8120007
:102800001020ADF814008020ADF816000720ADF8B8
:10281000180002A9054800F038F80121034800F02B
:102820001DF807B000BD0000000C0140003800405A
:1028300010B504464FF480510648FFF777F821465B
:10284000054800F020F84FF480510248FFF76CF87B
:1028500010BD0000000C01400038004021B102888A
:1028600042F04002028004E002884FF6BF731A4033
:10287000028070471AB183880B43838002E083880B
:102880008B43838070478181704710B50022028896
:1028900002F441520B884C8823438C882343CC8814
:1028A00023430C8923434C8923438C892343CC89BC
:1028B00023431A430280838B4FF2FF7423408383A8
:1028C0000B8A038210BD10B500F002F810BD0000A5
:1028D0000CB50020019000903348006840F480302F
:1028E0003149086000BF3048006800F400300090B3
:1028F0000198401C0190009818B90198B0F5A06F9C
:10290000F1D12948006800F4003010B10120009096
:1029100001E0002000900098012843D1234800687E
:1029200040F01000214908600846006820F00300CC
:1029300008600846006840F0020008601A484068D5
:10294000194948600846406848600846406840F4B5
:10295000806048600846406820F47C104860084663
:10296000406840F4E81048600846006840F0807015
:10297000086000BF0C48006800F000700028F9D023
:102980000948406820F0030007494860084640684D
:1029900040F00200486000BF0348406800F00C00AF
:1029A0000828F9D10CBD00000010024000200240B0
:1029B00070B5604804686048007830B901205E490D
:1029C00008708107888CFDF7B7FB00BF4FF080408F
:1029D000808C7F21B1EB202F01DA012000E0002064
:1029E00056490968087055480068007848BBFDF7EB
:1029F00099FB782190FBF1F201FB12004F49096825
:102A00004870FDF78FFB282190FBF1F201FB1200CB
:102A10004A4909688870FDF785FBC0F3472047499C
:102A20000968C870FDF77EFBC0F347214348006882
:102A30000171FDF777FBC0F3472140480068417101
:102A40002AE0FDF76FFB782190FBF1F201FB120009
:102A50003A4909684870FDF765FB0546C01705EB64
:102A600010700011A5EB0010344909688870FDF75B
:102A700059FBC0F3472031490968C870FDF752FB84
:102A8000C0F347212D4800680171FDF74BFBC0F3EF
:102A900047212A48006841712648046813E02078DD
:102AA00026490968097888420CD160782349096869
:102AB0004978884206D1A0782049096889788842F7
:102AC00000D183E7A468002CE9D100201B490968E4
:102AD00088601A4800680078A8B9184800684078EB
:102AE000C0EB0011164800EBC10014490968897851
:102AF00001EB4101084411490968B1F80320028043
:102B00004979817014E00D48006841780C48F2382A
:102B100030F81100094909688A7801219140084379
:102B200081B20648006842780548F23820F8121051
:102B300070BD0000340000203C0000203800002060
:102B40006E01002070B506460C2002F023F94349BF
:102B500008600020096808703C20404909684870F6
:102B600014203E49096888703C4800683188A0F804
:102B70000310B178417100203849096888600C2041
:102B800002F008F9364908600020096808703C2006
:102B90003349096848700520314909688870502018
:102BA0002F490968C87000212D4800680171502123
:102BB0002B4800684171002029490968886027482E
:102BC000046800E0A468A0680028FBD1012516E095
:102BD0000C2002F0DFF8A060A46800202070C5F18E
:102BE0003C0060701420A0700020E070C5EB8510E0
:102BF000C0F1FF00207100216171681CC5B2022D77
:102C0000E6DD0020A060154804680FE06078C0EBA6
:102C10000011144800EBC100A17801EB4101084408
:102C2000B4F80310018061798170A468002CEDD1A3
:102C30000B4800684078C0EB00110A4800EBC10067
:102C400007490968897801EB41010844044909688A
:102C5000B1F8032002804979817070BD34000020F2
:102C6000380000206E01002010B54D4804684D4822
:102C7000406920F008004B49486132E0207808BBE9
:102C800000216078C0EB0012474800EBC200A27838
:102C900002EB420281546078C0EB0012424800EB24
:102CA000C200A27802EB4202104441706078C0EB8F
:102CB00000123D4800EBC200A27802EB4202104431
:102CC00081700DE061783848F23830F81100A27850
:102CD00001219140884362783349F23921F812008A
:102CE000A468002CCAD131480068007868BB002174
:102CF0002E4800684078C0EB00122B4800EBC20061
:102D00002A4A1268927802EB4202815427480068EE
:102D10004078C0EB0012244800EBC200234A12683E
:102D2000927802EB420210444170204800684078DB
:102D3000C0EB00121C4800EBC2001C4A12689278DB
:102D400002EB42021044817013E018480068417899
:102D50001548F23830F81100144909688A780121C1
:102D600091408843114909684A780F49F23921F89E
:102D700012000B48006838B10948006801F0F8FEFD
:102D800000200749096888600848006838B107488A
:102D9000006801F0EDFE002004490968886010BD5C
:102DA00034000020283A00206E0100203800002066
:102DB0002DE9F047804600260027B146FE48056809
:102DC00000240C2001F0E6FF0446AD681BE02878E3
:102DD000F94909680978884214D16878F649096880
:102DE000497888420ED1A878F349096889788842E1
:102DF00008D1F248406920F008000830EF494861E6
:102E0000BDE8F087AD68002DE1D108F00F0030B1CA
:102E1000012807D0022807D003280AD107E04FF085
:102E2000FF3707E0012705E04FF0FF3602E00126FB
:102E300000E0E5E700BFE24800680078DE49096885
:102E40000978884277D1DE4800684078DA49096815
:102E500049788842F6D1DA4800688078D64909680E
:102E600089788842EED1D448006800784FFA80F91A
:102E7000D1480068007890BBCF480068807840B99E
:102E8000002F06DA0120CC49096808700F20A070D5
:102E900012E0C94800688078272808D1002F06DD95
:102EA0000120C549096808700020A07004E0C248EC
:102EB000006880783844A070BF480068407820B926
:102EC000002E02DA7720607048E0BB480068407846
:102ED000772805D1002E03DD002060703EE005E07C
:102EE000B548006840783044607037E0B248006808
:102EF000407820B9002E02DA772060700EE0AE48EC
:102F000000684078772804D1002E02DD0020607030
:102F100004E0A9480068407830446070A648006822
:102F2000807848B9002F07DA0020A34909680870A3
:102F30002720A07012E093E09F48006880780F2857
:102F400007D1002F05DD00209B4909680870A0709B
:102F500004E09948006880783844A070964800687A
:102F6000007820709449096881F8009092480068C0
:102F7000B0F80310A4F80310407960718E4800681F
:102F80008F490968B1F80320A0F8032049794171FD
:102F900089480068A0608848046000680078A8B983
:102FA000854800684078C0EB0011864800EBC100FE
:102FB00081490968897801EB410108447E49096823
:102FC000B1F8032002804979817014E07A480068E2
:102FD00041787C48F23830F81100774909688A78DE
:102FE00001219140084381B27348006842787548D6
:102FF000F23820F812107048006880680078B8B97C
:103000006D48006880684078C0EB00116D4800EBA7
:10301000C100694909688968897801EB4101084460
:1030200067490968B1F8032002804979817014E08A
:103030006148006841786348F23830F811005E4911
:1030400009688A7801219140084381B25A48006892
:1030500042785C48F23820F81210FFF7A9FC60E1D2
:103060005548006800784FFA80F9534800680078A6
:10307000E8BB51480068407820B9002E02DA77207A
:1030800060700EE04C4800684078772804D1002E2C
:1030900002DD0020607004E047480068407830445A
:1030A000607045480068807880B9002F0EDA0120F2
:1030B0004149096808706078C0EB0010C0007821B1
:1030C00090FBF1F060700F20A07065E03A48006856
:1030D0008078272812D1002F10DD01203649096899
:1030E00008706078C0EB0010C000782100E00BE0B1
:1030F00090FBF1F060700020A0704DE02E48006859
:1031000080783844A07047E02B480068407820B9A8
:10311000002E02DA772060700EE0274800684078C1
:10312000772804D1002E02DD0020607004E02248E0
:1031300000684078304460701F480068807880B92B
:10314000002F0EDA00201C49096808706078C0EB77
:103150000010C000782190FBF1F060702720A07073
:103160001AE01548006880780F2810D1002F0EDD76
:1031700000201149096808706078C0EB0010C00099
:10318000782190FBF1F060700020A07004E00A4804
:10319000006880783844A070074800680078207084
:1031A0000549096881F8009003480068B0F80310E9
:1031B000A4F80310407907E034000020283A0020EA
:1031C000380000206E01002060715B480068A0603C
:1031D0005948046000680078A8B9574800684078EA
:1031E000C0EB0011554800EBC100534909688978CC
:1031F00001EB4101084450490968B1F803200280FD
:103200004979817014E04C48006841784B48F238A5
:1032100030F81100484909688A7801219140084333
:1032200081B24548006842784448F23820F81210CC
:103230004148056830E0A8688168B1F80320A0F82B
:10324000032049794171A868007890B9A86840784E
:10325000C0EB0011394800EBC100A968897801EB87
:1032600041010844A968B1F80320028049798170BE
:1032700011E0A86841783148F23830F81100A968A7
:103280008A7801219140084381B2A86842782B488E
:10329000F23820F81210AD68A86880680028CAD1FA
:1032A000A868007838BB0021A8684078C0EB0012FD
:1032B000224800EBC200AA68927802EB42028154D5
:1032C000A8684078C0EB00121C4800EBC200AA6856
:1032D000927802EB420210444170A8684078C0EB3B
:1032E0000012164800EBC200AA68927802EB420274
:1032F0001044817010E0A86841781048F23830F826
:103300001100A9688A78012191408843A9684A7808
:103310000A49F23921F81200A86801F029FC0020BE
:10332000A8600748007D41090548406961F30A200B
:103330000349486100BF63E5340000206E010020AE
:10334000283A002010B51348006840F001001149E8
:10335000086008464068104908400E494860084621
:1033600000680E4908400B4908600846006820F4D0
:10337000802008600846406820F4FE0048604FF452
:103380001F008860FFF79FFA4FF000600449086053
:1033900010BD0000001002400000FFF8FFFFF6FE25
:1033A00008ED00E0F0B50C46154600220021068C21
:1033B0004FF6FE773E400684028B018C4FF60C766A
:1033C00032407E1C06EA03162E433243104EB042B2
:1033D0000ED0104EB0420BD0B0F1804F08D00E4E40
:1033E000B04205D00D4EB04202D00D4EB04206D1D3
:1033F0004FF6FD76314044F00106314305E04FF6CB
:10340000F576314044F00106314302830184F0BD7A
:10341000002C01400034014000040040000800403E
:10342000000C0040F0B50C46154600220021002695
:10343000078C4FF6EF7C07EA0C070784028B018CA0
:103440004FF6FF7707EA041640F6FF473A404FF67B
:10345000FF7707EA03373A434FF6FF7707EA052776
:103460003A43114FB8420ED0104FB8420BD0B0F1D2
:10347000804F08D00E4FB84205D00E4FB84202D050
:103480000D4FB84206D14FF6DF77394046F01007AE
:10349000394305E04FF65F77394044F01007394370
:1034A00002830184F0BD0000002C01400034014083
:1034B0000004004000080040000C0040F0B50C463D
:1034C0001546002200210026078C4FF6FF6C07EA04
:1034D0000C070784828B018C4FF6FF7707EA0426DE
:1034E0004FF60C773A404FF6FF7707EA03172F4362
:1034F0003A43114FB8420ED0104FB8420BD0B0F142
:10350000804F08D00E4FB84205D00E4FB84202D0BF
:103510000D4FB84206D14FF6FF57394046F4807739
:10352000394305E04FF2FF57394044F4807739437F
:1035300082830184F0BD0000002C01400034014072
:103540000004004000080040000C0040F0B50C46AC
:103550001546002200210026078C4EF6FF7C07EA64
:103560000C070784828B018C4FF6FF7707EA04363D
:1035700040F6FF473A404FF6FF7707EA05273A4300
:103580004FF6FF7707EA03373A43114FB8420ED0A0
:10359000104FB8420BD0B0F1804F08D00E4FB84258
:1035A00005D00E4FB84202D00D4FB84206D14DF6AD
:1035B000FF77394046F48057394305E047F6FF5717
:1035C000394044F48057394382830184F0BD0000C0
:1035D000002C01400034014000040040000800407D
:1035E000000C004010B588B004460121C802FEF767
:1035F0004FFF01210420FEF74BFF4FF48070ADF820
:10360000100018208DF8130003208DF8120004A973
:103610001C48FEF7B5F8A01C80B2ADF818000020D9
:10362000ADF81400ADF81A00ADF8160005A916485B
:1036300000F066FB7020ADF800000120ADF802003C
:103640000020ADF80600ADF8080069460E4800F00D
:1036500071FA01210C4800F0EAF908210A4800F04B
:10366000B5FA0121084800F0C7F90121064800F029
:10367000D2F9BDF818004110034800F010FB08B063
:1036800010BD000000080140002C014010B50121D0
:10369000880700F0DEF940B10121880700F0B8F991
:1036A0003F480068401C3E4908600221480700F07E
:1036B000D0F9002873D00221480700F0A9F94FF093
:1036C000804000F0C3F904463548008804EB004010
:1036D00034494860002088753348007D00F00300BD
:1036E00001281AD131480078401CC0B22F49087017
:1036F0002C49097B884239DB00202C4908702C4872
:103700000078401CC0B22A4908702649497E884288
:103710002CDB00202649087028E02348007D00F0BB
:10372000030002281BD121480078401CC0B21F4969
:1037300008701C49097B884218DB00201B4908706F
:103740001B480078401EC0B2194908701549497ECF
:1037500088420BDB1348407E1549087006E011488B
:10376000007B134908700020104908701048007849
:103770000C4908760E480078087501200A4908743B
:103780000846007C20B10846007808B9FDF7F8FB30
:103790000020034908604FF08041888400BF10BDBD
:1037A0000400002060000020283A002000000020D3
:1037B0000100002000B589B001210846FEF758FE3F
:1037C00001210420FEF764FE0120ADF82000042052
:1037D0008DF8230008A92448FDF7D2FF4FF6FF70AB
:1037E000ADF818004720ADF814000020ADF81A001D
:1037F000ADF816008DF81C0005A94FF0804000F0D0
:103800007FFA0020ADF808000220ADF80A00012080
:10381000ADF80C000020ADF80E000F20ADF8100040
:1038200002A94FF0804000F025F901220321900702
:1038300000F076F903214FF0804000F0E9F81C20F9
:103840008DF8040000208DF805008DF80600012099
:103850008DF8070001A8FEF7ADFD0121880700F0F3
:10386000DAF809B000BD00000008014010B588B0CA
:10387000044601210220FEF7FBFD01210920FEF78D
:1038800007FE2020ADF81C0003208DF81E00182034
:103890008DF81F0007A91D48FDF772FF01211C4884
:1038A000FDF7FAFF1B4890FBF4F0401E80B2ADF824
:1038B0001400C720ADF810000020ADF81600ADF8D8
:1038C00012008DF8180004A9134800F019FA6020BE
:1038D000ADF800000120ADF802000020ADF80600B0
:1038E000ADF8080069460C4800F07AF908210A484A
:1038F00000F0C8F90121084800F08DF8BDF8140067
:103900004110054800F0CDF908B010BD000C014091
:1039100000081A00407E05000004004010B5012197
:10392000134800F096F800B34FF08040808C04B24A
:1039300001210F4800F06CF80E48408A401C80B20C
:103940000C494882098A884203DB002009494882E1
:1039500000E010BDFDF758FC4FF08040808C001B4C
:1039600081B20548A0F8C61900BF00BFF1E700000A
:103970000008004060000020603000201FB50446B1
:1039800001210420FEF774FD42F2107090FBF4F068
:10399000401E80B2ADF8080041F61F40ADF80400AB
:1039A0000020ADF80A00ADF806008DF80C0001A962
:1039B000104800F0A5F901210E4800F029F8012275
:1039C00011460C4800F0ACF84FF4A060FEF72AFD59
:1039D0001E208DF8000001208DF801008DF80200F6
:1039E0008DF803006846FEF7E5FC0121014800F070
:1039F00012F81FBD0008004021B1028842F0800289
:103A0000028004E002884FF67F731A4002807047FC
:103A1000CA430282704721B1028842F0010202804B
:103A200004E002884FF6FE731A400280704731B1FD
:103A3000B0F8442042F40042A0F8442005E0B0F879
:103A40004420C2F30E02A0F8442070470146888E3D
:103A5000704730B50246002000230024158A05EA8D
:103A60000103958905EA010413B10CB1012000E0BE
:103A7000002030BD70B505460C46244885420ED066
:103A8000234885420BD0B5F1804F08D021488542AC
:103A900005D02148854202D02048854200D100E06F
:103AA00000BF208850B92389A28861882846FFF783
:103AB00079FCE188284600F0F6F825E02088042803
:103AC0000AD12389A28861882846FFF7ABFCE188E8
:103AD000284600F0F1F817E0208808280AD1238949
:103AE000A28861882846FFF7E9FCE188284600F0B3
:103AF000F0F809E02389A28861882846FFF726FDAF
:103B0000E188284600F0EEF870BD0000002C01406E
:103B1000003401400004004000080040000C004058
:103B20001AB183890B43838102E083898B438381AC
:103B30007047000070B5002400220023058C4FF66A
:103B4000FE7635400584028C8388048B4FF68F7592
:103B50002C40B51E2C400D882C43751E2A400D8923
:103B60002A434D882A43144DA8420BD0134DA84236
:103B700008D0134DA84205D0124DA84202D0124DD4
:103B8000A84213D14FF6F7752A404D892A434FF6C4
:103B9000FB752A408D882A434FF6FF652B404FF670
:103BA000FF552B408D892B43CD892B438380048384
:103BB000CD888586028470BD002C01400034014010
:103BC0000040014000440140004801400A460021F5
:103BD000018B4FF6F77319401143018370470000C2
:103BE00070B5002400220023058C4FF6EF76354097
:103BF0000584028C8388048B48F6FF752C404FF6B1
:103C0000FF452C400D884FF6FF7606EA05252C432C
:103C10004FF6DF752A400D8906EA05152A434D88BF
:103C200006EA05152A43154DA84202D0144DA842B4
:103C30001DD14FF67F752A404D894FF6FF7606EA73
:103C400005152A434FF6BF752A408D8806EA0515EB
:103C50002A434FF6FF352B404FF2FF752B408D89DD
:103C600006EA85052B43CD8906EA85052B4383802B
:103C70000483CD880587028470BD0000002C0140BC
:103C8000003401400A460021018B4FF2FF731940B6
:103C90004FF6FF7303EA02231943018370478186BD
:103CA000704701877047028B4FF6F3731A40028307
:103CB000028B0A4302837047028B4FF2FF331A4094
:103CC0000283028B4FF6FF7303EA01231A43028338
:103CD0007047828B4FF6F3731A408283828B0A43BC
:103CE00082837047828B4FF2FF331A408283828B2C
:103CF0004FF6FF7303EA01231A43828370470000E3
:103D0000002202881D4B98420ED01D4B98420BD0CA
:103D1000B0F1804F08D01B4B984205D01A4B984207
:103D200002D01A4B984204D14FF68F731A404B8839
:103D30001A43174B984207D0164B984204D04FF6BF
:103D4000FF431A40CB881A4302808B8883850B88F7
:103D500003850A4B98420BD0094B984208D00E4B72
:103D6000984205D00D4B984202D00D4B984201D19C
:103D70000B7A03860123838270470000002C0140E8
:103D8000003401400004004000080040000C0040E6
:103D90000010004000140040004001400044014079
:103DA000004801401FB5044601214804FEF760FBAE
:103DB0000021174800F099F900940020ADF80400A4
:103DC000ADF80600ADF80800ADF80C000C20ADF819
:103DD0000A0069460E4800F0EDF9012240F2266122
:103DE0000B4800F0C1F9012240F22441084800F0DC
:103DF000BBF901224021064800F083F9012280210D
:103E0000034800F07EF90121014800F06EF91FBD62
:103E10000044004010B58EB0044601210846FEF76C
:103E200017FB01210520FEF733FB0420ADF8340019
:103E300003208DF8360018208DF837000DA935487D
:103E4000FDF79EFC0820ADF8340004208DF8370003
:103E50000DA93048FDF794FC2046FFF7A3FF4FF46F
:103E6000A060FEF7DFFA26208DF8300001208DF8E3
:103E7000330002208DF8310001208DF832000CA8AB
:103E8000FEF798FA2448FCF79BFF24480190244849
:103E9000029000200390802004900020079005905D
:103EA00008908020069000200B9009904FF440501D
:103EB0000A9001A91848FDF743F801211648FCF7BC
:103EC00073FF15481430FCF77BFF14480190144829
:103ED00080380290102003900020049007900590F5
:103EE000089080200690002009904FF400500A901E
:103EF00000200B9001A908481430FDF721F800219B
:103F000005481430FCF750FF4FF08070FCF73EFF7F
:103F10000EB010BD000801406C0002400444004097
:103F20006A3D002070B540F22661194800F0F2F8B1
:103F300048B14021164800F0CFF81648406920F0FB
:103F400004001449486140F22441114800F0E2F8AD
:103F5000E8B100211048FCF727FF0D480088C5B2E2
:103F60000B48001D0088C5B20B48FCF7CFFFC0F11D
:103F70008000C4B22146094800F012F880210648AA
:103F8000FCF7FCFF01210448FCF70EFF00BF70BDE9
:103F900000440040283A00206C0002406A3D0020A6
:103FA0000A46017842296CD14178042933D007DCD4
:103FB00069B1012914D0022916D003295FD11BE071
:103FC00005292CD0062944D0102958D149E0817800
:103FD000334B5971C37832498B710379CB714FE000
:103FE00081782F4B99704BE0817809112C4BD97354
:103FF00081784911597343E08178294B1972C1784E
:104000005972017999724179D9721946097B09B9B6
:104010008179197334E08178224B198230E08378FA
:104020001F49496963F301011D4B59611946097D17
:1040300001F0030149B1C17801EB81014900782306
:1040400091FBF3F1174B197302E0C178154B19730B
:1040500016E0C3781249496963F30411104B5961A2
:104060000EE08178104B1B8861F307130E490B801B
:10407000098821F00701491C0B4B198000E000BFA3
:104080000CE001784F2908D141784B2905D181787E
:104090000D2902D1C1780A2900D000BF7047000065
:1040A000283A002060000020E83C002070B505465A
:1040B0000C4600210748FCF777FE06480C300560E7
:1040C00004488038C0F8844001210248FCF76CFEA7
:1040D00070BD00008000024001F40072B2F5007F64
:1040E00000D100BFCA430280704721B1828942F4E7
:1040F0000052828104E082894DF6FF731A4082816A
:1041000070471AB1838A0B43838202E0838A8B4310
:104110008382704770B502460024002300250020EA
:1041200040F66A16B14200D100BFC1F3421501F05A
:104130001F03012606FA03F3012D02D196893340AD
:1041400006E0022D02D1168A334001E0968A334000
:104150000C12012606FA04F41688344013B10CB18F
:10416000012000E0002070BDF0B5034600240026C9
:104170000025002040F66A17B94200D100BF18465A
:10418000C1F3421401F01F06012707FA06F5012CBE
:1041900001D10C3004E0022C01D1103000E01430C9
:1041A0001AB107682F43076002E00768AF43076052
:1041B000F0BD00002DE9F04786B005460E4600240C
:1041C000A24600BFA1460027B08900B100BF2F461C
:1041D0002C8A4CF6FF700440F08804432C82AC8992
:1041E0004EF6F3100440B0883189084371890843C2
:1041F0000443AC81AC8A4FF6FF400440B0890443CD
:10420000AC8201A8FEF754F91F48874202D1DDF8BD
:1042100010A001E0DDF80CA0A88900F4004040B136
:104220000AEBCA0000EB0A1031684900B0FBF1F854
:1042300007E00AEBCA0000EB0A1031688900B0FB06
:10424000F1F86420B8FBF0F004012009642101FBBF
:104250001089A88900F4004040B1322000EBC90069
:10426000B0FBF1F000F00700044308E0322000EB5F
:1042700009106421B0FBF1F000F00F0004432C8121
:1042800006B0BDE8F0870000003801400FB4084BCD
:1042900010B504A902AA039800F0CEF8044602A9BA
:1042A000002000F060FC204610BC5DF814FB00000C
:1042B000674B000802E008C8121F08C1002AFAD1A3
:1042C00070477047002001E001C1121F002AFBD196
:1042D000704700002DE9FF5FDDE90220010DDDF8E8
:1042E00038B0024318D044F61050A1F2FF314143D8
:1042F0000D140F98012820D0A5EB0B00401C5FEA9D
:10430000000A4FF00004474EDFF81C91A0465046CB
:1043100016D5CAF1000728E00F98012443A201280E
:1043200008D0002100980F9BC0E90021C0E902439A
:10433000BDE8FF9F6FEA0B01F4E7CBF10000DEE779
:10434000074612E0F80707D0224633464046494662
:10435000FBF751FF804689462246334610461946F0
:10436000FBF749FF04460E467F10002FEAD1DDE936
:104370000201BAF1000F42464B4602DAFBF73BFF5F
:1043800001E0FBF7AAFF04460E460022284BFCF78B
:10439000D7F903D84FF0FF30014607E00022254B44
:1043A00020463146FCF70CF9FCF7B1F9102409E07E
:1043B000002C0ADB0A220023FCF73DF8019B303277
:1043C0001A55641E50EA0102F2D1641C019AC4F12C
:1043D000110314440F9A012A03D0012208430DD17E
:1043E0000AE0084304D000204FF0110B0F9080E743
:1043F000A3EB0B056D1E0DE05B4504DD4FF00002E5
:1044000005F1010504E003DA4FF00002A5F1010512
:10441000002AECD000980F99C0E90231C0E90045AC
:1044200086E70000000024400000F03F300000005C
:104430000000F0430000E03F2DE9FF4F95B09B46A0
:104440008946064600250FE2252877D10024274615
:10445000F84A0121059400E0044316F8013F203B8F
:1044600001FA03F01042F7D130782A2811D06FF00A
:104470002F033078A0F13002092A16D8059A44F0AB
:10448000020402EB820203EB42021044761C059008
:10449000EFE759F8042B0592002A03DA504244F45E
:1044A0000054059044F00204761C30782E2816D172
:1044B00016F8010F44F004042A280DD06FF02F02E3
:1044C0003078A0F13003092B09D807EB870302EB02
:1044D0004303C718761CF3E759F8047B761C307841
:1044E0006C280FD006DC4C2817D068280DD06A281D
:1044F00014D104E0742810D07A280FD10DE044F4D0
:1045000000140AE044F4801401E044F4401472788A
:10451000824202D104F58014761C761C307866281D
:104520000BD013DC582877D009DC002875D045283B
:10453000F6D04628F4D047281AD19DE118E0632828
:1045400035D0642879D0652812D195E1702873D0D0
:1045500008DC6728F1D069286FD06E280DD06F284D
:1045600006D1B5E073282CD0752875D0782874D082
:104570005A46179990476D1C75E1C4F30250022802
:1045800009D003280DD0D9F8001004280DD00D60F3
:1045900009F1040967E1D9F80010EA17C1E90052EE
:1045A000F6E7D9F800100D80F2E70D70F0E719F882
:1045B000041B8DF8001000208DF80100EA46012050
:1045C00003E059F804AB4FF0FF3061074FF00001F2
:1045D00002D40DE008F101018846B9420FDA8045A6
:1045E000F8DB1AF808100029F4D108E008F10101FD
:1045F00088468142FADB1AF808100029F6D105989E
:104600005B46A0EB080721463846179A00F094FA5B
:10461000284400EB080507E04DE029E10DE01AF819
:10462000010B5A4617999047B8F10108F7D25B463B
:1046300021463846179A13E142E00A220092C4F359
:1046400002524FF0000A022A08D059F804CB032A7C
:104650004FEAEC710AD00DE029E02AE009F10701E8
:1046600021F00702F2E802C1914609E00FFA8CFC42
:104670004FEAEC71042A03D14FFA8CFC4FEAEC713B
:10468000002907DA0A460021DCF1000C61EB020187
:104690002D2202E0220504D52B228DF804200122D0
:1046A00003E0E20701D02022F7E7904659E00A2113
:1046B00002E010220DE010214FF0000A00910BE003
:1046C00010224FF0000A44F004040827009203E08F
:1046D00008224FF0000A0092C4F30252022A05D0C9
:1046E00059F804CB0021032A08D009E009F1070199
:1046F00021F00702F2E802C1914605E01FFA8CFCA6
:10470000042A01D10CF0FF0C4FF00008220728D535
:10471000702806D0009B83F0100353EA0A0305D0EB
:104720000EE040228DF80420012208E05CEA01023C
:1047300006D030228DF804208DF805000222904624
:10474000009B83F0080353EA0A030AD15CEA0102E2
:1047500001D1620705D530228DF804204FF0010801
:104760007F1E582804D034A003900EA802900DE0BC
:1047700036A0F9E753466046009AFBF75CFE844694
:104780000398825C0298401E029002705CEA01006D
:10479000F0D1029806A9081A00F1200A600702D594
:1047A00024F4803400E00127574502DDA7EB0A001E
:1047B00000E0002000EB0A01009005984144401AF7
:1047C0000590E00306D45B462146179A059800F051
:1047D000B3F90544002706E001A85A46C05D1799C1
:1047E00090476D1C7F1C4745F6DBE0030CD55B460C
:1047F0002146179A059800F09FF9054404E03020FF
:104800005A46179990476D1C0099481E0090002940
:10481000F5DC08E0029802995A460078491C02919A
:10482000179990476D1CBAF10001AAF1010AF1DC59
:1048300065E1000009280100303132333435363764
:1048400038396162636465660000000030313233DC
:10485000343536373839414243444546000000007C
:1048600000F058F90544761C307800287FF4ECAD50
:1048700019B02846BDE8F08F620700D4062709F179
:10488000070222F0070CFCE80223E14603F000488F
:104890005FEA080C02D00FF2702C0DE05FEA045CB6
:1048A00002D50FF2682C07E05FEAC47C02D00FF259
:1048B000602C01E0AFF2700C4FF0FF3823F00043A2
:1048C000CDF850C065280CD006DC452809D0462814
:1048D0001DD047283DD13DE0662818D067287ED1FD
:1048E00038E00021112F01DB112000E0781CCDE918
:1048F000000106A90EA8FFF7EDFCDDE90F010E9AF5
:1049000003910021009207F1010A04914DE04FF05C
:1049100000400097CDE9011006A90EA8FFF7DAFCC8
:10492000DDE90F0203920E9B11990022DDF80CA025
:104930000093049211B9791C00EB010AB7EB0A004D
:1049400004D4C0F1FF3007F1010A0490AAEB07007C
:10495000019044E0012F00DA01270021112F01DD31
:10496000112000E03846CDE9000106A90EA8FFF7A6
:10497000B1FCDDE90F010E9A039100210491009230
:10498000BA4621070CD40399514500DA8A46BAF198
:10499000010F05DD009AAAF10101515C302908D010
:1049A000B84202DA10F1040F06DA0121CDE9011054
:1049B00015E0AAF10101E9E7002805DC04990144AA
:1049C0000491AAEB000102E0411C514500DD8A463A
:1049D0000499401A401C01904FF0004002902007BB
:1049E00004D40198504501DBCDF8048000208DF8F7
:1049F0004F0002980DF14F07B0F1004F25D02B204A
:104A00000E9002984FF0020800280CDA4042029003
:104A10002D200E9007E00A210298FBF7F6FC3031BA
:104A2000029007F8011DB8F10001A8F10108F2DCBD
:104A300002980028EFD1791E0E980870307800F0A7
:104A4000200040F0450007F8020D12A8C01B00F13D
:104A500007081498007800B1012000EB0A010198C2
:104A600001EBE07105984144401A401E0590E003B7
:104A700006D45B462146179A059800F05DF8054478
:104A80001498007818B15A46179990476D1CE003A6
:104A900024D55B462146179A059800F04DF8054449
:104AA0001CE00498002807DBDDE90301884203DDF0
:104AB0000098405C179901E0179930205A469047BA
:104AC000049805F10105401C04900198401E0190D6
:104AD00004D12E205A46179990476D1CBAF1000157
:104AE000AAF1010ADDDC05E017F8010B5A46179917
:104AF00090476D1CB8F10001A8F10108F4DC5B4699
:104B00002146179A0598ABE62D0000002B00000007
:104B1000200000002DE9F041044600251E461746FE
:104B2000880404D405E039462020B0476D1C641E7B
:104B3000F9D52846BDE8F0812DE9F041044600256D
:104B40001E469046C80301D5302700E02027880480
:104B500004D505E041463846B0476D1C641EF9D5C2
:104B60002846BDE8F0810A68531C0B60107070473E
:104B700010B5002821D0114B0022001F196803E056
:104B8000814203D80A4649680029F9D152B1136815
:104B9000841A9C4204D1006818441060104602E058
:104BA000506000E0186039B102680B1A934203D1DB
:104BB0000B681A4402604968416010BD580000202B
:104BC00098B04FF000090024FCF7B2FEFDF7DAFCC4
:104BD000FDF7D6FDFBF77CFF4FF4E130FFF71AF944
:104BE0004620FEF7FFFCFEF7E5FD41F28830FEF7B8
:104BF0003DFE4FF4FA60FEF7C1FE002010E00022F7
:104C000000EB40035349CA5400EB400319444A7077
:104C1000102200EB40034F4919448A70411CC8B26E
:104C20002828ECDB4FF6FF714B48A0F80C11002050
:104C300049490882792048762820C87600204873A0
:104C4000782048751020C8750620444988700320D4
:104C5000487364204871642140488171C17177E0D4
:104C60004FF08040808CA0EB090000B2B0F5FA5FF5
:104C70006EDB09F5FA501FFA80F9601C84B204F06B
:104C8000010028B935490978354A52F82100804792
:104C900004F00700072802D13248FDF7ABFAE0B272
:104CA000FF2855D12C480830FCF744FE2B48007DE6
:104CB000C0F38000002846D12848406920F0040055
:104CC000001D2649486124494868FBF775FB0646E4
:104CD00031462548FBF751FA0546FBF783FB824630
:104CE0008B461D494889FBF770FB07464FF066323B
:104CF0001E4BFBF780FA054600221D4BFBF7EDFA31
:104D0000CDE9060114490889FBF75FFB05464FF022
:104D10006632164BFBF76FFA07460022144BFBF77F
:104D2000DCFACDE902ABCDE90401DDE90601CDE90C
:104D3000000110A108A8DDE90423FFF7A7FA3C2130
:104D400008A8FFF7B3F905480E30FBF719FE00BFBE
:104D500086E70000AE39002060000020283A0020DD
:104D60000800002028000020C0E1644C66661A405C
:104D70000000B0405644443A2566560D0A56434357
:104D80003A2566560D0A53504545443A25667270D9
:104D90006D0D0A00F0B50B30154D20F00701002411
:104DA000144A0FE003688B420BD38B4205D95E1A7D
:104DB00043184768C3E9006700E04368136002C016
:104DC00004E0021D10680028ECD12046002802D122
:104DD000286808B10020F0BD064A07481060074A5D
:104DE000121A22F00702C0E9002401202860D7E748
:104DF0005C00002058000020743E0020704A002013
:104E000040000000400000004000000094124C0AE6
:104E1000943A4C0A9412101B10134C0A9412701BF3
:104E200094224C124C0A940A10134C0A9412700BE0
:104E300094224C0A940A4C0A100B9412101B704BCB
:104E40004A118811B8118811B8110C12EE11B8115D
:104E5000882126114A618811B8118811B8110C12E5
:104E6000EE11B831881194320020B81194124C32EE
:104E70000C12EE19B8198811262188114A31B8117F
:104E800094124C320C12EE19B8198811B8614A11FB
:104E90008811B8118811B8110C12EE11B8118821BF
:104EA00026114A618811B8118811B8110C12EE113F
:104EB000B83188119452941210134C320C12EE191E
:104EC000B8198811262188114A31B81194124C3230
:104ED0000C12EE19B8198811B861002000200020CA
:104EE000001094129412101370131013940A4C0AA9
:104EF0004C1294221013700B940A94224C12940AB0
:104F0000B809B821B81194124C320C124C129412F8
:104F10001023701394129442001094127033940A68
:104F20004C0A4C2200100C124C22101394129422A2
:104F30004C1294124C120C0AB809001094124C1224
:104F40000C12EE1188118811B811B821B8214A113C
:104F500088118811B811B821B821B8219422704362
:104F60009422102370131013704370239422102383
:104F70007013101394420040B8214C42B8210C2207
:104F80004C120C124C424C22B8210C224C120C1226
:104F9000B8410040942270439422102370131013E0
:104FA0007043702394221023701310139442004016
:104FB000B8210C124C32B8210C224C120C124C228B
:104FC0000C124C1294227023DC13701310237063A4
:104FD0007013DC131824DC13701310139432702335
:104FE0001824DC1370131023944200207013DC1378
:104FF0001824DC137013101394327063941210137E
:105000007023182498141814DC137013DC830060C8
:1050100094221824DC137013101B942A702310138D
:10502000BA1294220C124C12942270231023701383
:1050300010137043002094221824DC1370131023E3
:10504000942270231013BA1294220C124C12942240
:105050007023102370131013706300200040BA22D5
:1050600094220C224C220C428821B82188210C2247
:10507000EE418821B82188214C220C42882110233E
:1050800094220C22EE21B821BA2294220C229422DE
:105090004C428821B82188210C22EE418821B82178
:1050A00088214C220C428821102394220C22EE21CC
:1050B000B8A1BA4294420C424C420CC20020882152
:1050C000B83188310C22EE4100208821B831883176
:1050D0004C220C4200208821103394320C22EE31F5
:1050E000B831BA2294320C3294224C4200208821EA
:1050F000B83188310C22EE4100208821B831883146
:105100004C220C4200208821103394320C22EE31C4
:10511000B8910020BA2294420C420C224C820CFA24
:1051200041542B4E414D453F0D0A00000000000048
:10513000000000000000000000000000000000006F
:10514000000000000000000000000000000000005F
:10515000000000000000000000000000000000004F
:10516000000000000000000000000000000000003F
:10517000000000000000000000000000000000002F
:10518000000000000000000000000000000000001F
:10519000000000000000000000000000000000000F
:1051A00041542B4E414D453D4359590D0A000000D5
:1051B00000000000000000000000000000000000EF
:1051C00000000000000000000000000000000000DF
:1051D00000000000000000000000000000000000CF
:1051E00000000000000000000000000000000000BF
:1051F00000000000000000000000000000000000AF
:10520000000000000000000000000000000000009E
:10521000000000000000000000000000000000008E
:1052200041542B50415353574F52443F0D0A0000F5
:10523000000000000000000000000000000000006E
:10524000000000000000000000000000000000005E
:10525000000000000000000000000000000000004E
:10526000000000000000000000000000000000003E
:10527000000000000000000000000000000000002E
:10528000000000000000000000000000000000001E
:10529000000000000000000000000000000000000E
:1052A00041542B50415353574F52443D4359590D8C
:1052B0000A000000000000000000000000000000E4
:1052C00000000000000000000000000000000000DE
:1052D00000000000000000000000000000000000CE
:1052E00000000000000000000000000000000000BE
:1052F00000000000000000000000000000000000AE
:10530000000000000000000000000000000000009D
:10531000000000000000000000000000000000008D
:1053200041542B50415353574F5244430D0A0000F0
:10533000000000000000000000000000000000006D
:10534000000000000000000000000000000000005D
:10535000000000000000000000000000000000004D
:10536000000000000000000000000000000000003D
:10537000000000000000000000000000000000002D
:10538000000000000000000000000000000000001D
:10539000000000000000000000000000000000000D
:1053A00041542B524F4C453F0D0A000000000000B5
:1053B00000000000000000000000000000000000ED
:1053C00000000000000000000000000000000000DD
:1053D00000000000000000000000000000000000CD
:1053E00000000000000000000000000000000000BD
:1053F00000000000000000000000000000000000AD
:10540000000000000000000000000000000000009C
:10541000000000000000000000000000000000008C
:1054200041542B524F4C454D4F44453F0D0A00000F
:10543000000000000000000000000000000000006C
:10544000000000000000000000000000000000005C
:10545000000000000000000000000000000000004C
:10546000000000000000000000000000000000003C
:10547000000000000000000000000000000000002C
:10548000000000000000000000000000000000001C
:10549000000000000000000000000000000000000C
:1054A00041542B524F4C453D320D0A000000000084
:1054B00000000000000000000000000000000000EC
:1054C00000000000000000000000000000000000DC
:1054D00000000000000000000000000000000000CC
:1054E00000000000000000000000000000000000BC
:1054F00000000000000000000000000000000000AC
:10550000000000000000000000000000000000009B
:10551000000000000000000000000000000000008B
:1055200041540D0A000000000000000000000000CF
:10553000000000000000000000000000000000006B
:10554000000000000000000000000000000000005B
:10555000000000000000000000000000000000004B
:10556000000000000000000000000000000000003B
:10557000000000000000000000000000000000002B
:10558000000000000000000000000000000000001B
:10559000000000000000000000000000000000000B
:1055A00041540D0A0000000000000000000000004F
:1055B00000000000000000000000000000000000EB
:1055C00000000000000000000000000000000000DB
:1055D00000000000000000000000000000000000CB
:1055E00000000000000000000000000000000000BB
:1055F00000000000000000000000000000000000AB
:10560000000000000000000000000000000000009A
:10561000000000000000000000000000000000008A
:1056200041542B44454641554C540D0A000000009E
:10563000000000000000000000000000000000006A
:10564000000000000000000000000000000000005A
:10565000000000000000000000000000000000004A
:10566000000000000000000000000000000000003A
:10567000000000000000000000000000000000002A
:10568000000000000000000000000000000000001A
:10569000000000000000000000000000000000000A
:1056A00000000000000000000000000000000000FA
:1056B00000000000000007FC07C40000000000001C
:1056C00000000000030002000200030000000000D0
:1056D0000090009C03F00090009C03F0009000906C
:1056E00000000398028C07FE0244033C01180000EE
:1056F0000180024403D800E000B80324003C00000D
:105700000010003803C4026403940308003800004A
:105710000000000000000300000000000000000086
:10572000000000000000000001F802040402000074
:1057300000000406020C01F0000000000000000060
:1057400001000140014003F003F00140014001006D
:1057500000400040004001F0004000400040004098
:1057600000000005000E0000000000000000000026
:105770000040004000400040004000400040000069
:105780000000000400040000000000000000000011
:105790000004000800100060008001000600000006
:1057A000000001F8020C02040204020801F80000E3
:1057B00000000100010003FC03FC000000000000E9
:1057C0000000030C020C0214022402C40184000035
:1057D0000000010802040244024402AC03B80000C5
:1057E0000010003000500090031003FC0010001067
:1057F000000001C8024402840284024802780000CA
:105800000000007800CC01440244004400780030DD
:10581000000002000204023C02600380030000005A
:10582000001003B802440244024402AC01B8000074
:10583000018003C00224022C0230026001C000007B
:1058400000000000000000440044000000000000D0
:1058500000000000000000460044000000000000BE
:105860000000004000A000900108020802040000AF
:10587000008000A000A000A000A000A00080000008
:105880000000020402080108009000A0004000008F
:105890000000030002000224026403C00180000033
:1058A00000F0010802F40294033403D403F0000072
:1058B0000004003C00E003A003A000F0001C000472
:1058C000000003FC02440244024402CC01B8000080
:1058D000000001F8030C02040204020C039800000B
:1058E000000003FC020402040204030801F00000AB
:1058F000000003FC0244024402440244024400004B
:10590000000003FC0240024002400240020000008E
:10591000000001F8020C02040224022801BC00006D
:10592000000003FC004000400040004003FC000079
:1059300000000000000003FC03FC00000000000069
:1059400000000018000C00040004000C03F8000024
:10595000000003FC004000C001700318020C0000AE
:10596000000003FC00040004000400040004000024
:10597000000003FC03C0003C007C03C003FC0000EB
:10598000000003FC038000C00030001C03FC00008A
:10599000006003F8020C02040204020C01F800008B
:1059A000000003FC022002200220024003C000008D
:1059B000006003F8020C02040214020C01FC000057
:1059C000000003FC024002400260025803CC0000C9
:1059D0000000039802C402440244032C0138000072
:1059E00000000200020003FC03FC020002000000B1
:1059F000000003F8000C00040004000C03F8000091
:105A00000200038000F0001C003C00E00380000066
:105A1000030003FC007C03C003E0001C03F8020049
:105A20000004020C039800E000E00318020C0000E0
:105A3000000003000180007C00FC018002000000E7
:105A40000000020C0234026402C403840204000059
:105A500000000000000007FE040204020002000033
:105A600000000600018000400030000C0002000031
:105A7000000000020402040207FE00000000000013
:105A800000000000040008000800040000000000FE
:105A900000010001000100010001000100010001FE
:105AA0000000000008000C000400020000000000DC
:105AB0000000005C005400940094007C007C000016
:105AC000000003FC004800840084004C00780000C3
:105AD00000000078004400840084004C004800006E
