:020000040800F2
:10000000A048002001010008090100080B010008B8
:100010000D0100080F010008110100080000000098
:1000200000000000000000000000000013010008B4
:100030001501000800000000170100081901000860
:100040001B0100081B0100081B0100081B01000820
:100050001B0100081B0100081B0100081B01000810
:100060001B0100081B0100081B010008D506000841
:10007000F5060008150700083507000855070008B1
:1000800075070008950700081B0100081B01000800
:100090001B0100081B0100081B0100081B010008D0
:1000A0001B010008892400081B0100081B0100082F
:1000B000C13900081B010008053B00081B010008AE
:1000C0001B0100081B0100081B0100081B010008A0
:1000D0001B0100081B010008F13F00081B0100087C
:1000E0001B0100081B0100081B010008DFF80CD0F1
:1000F00000F05AF80048004791490008A048002045
:100100000648804706480047FEE7FEE7FEE7FEE7B1
:10011000FEE7FEE7FEE7FEE7FEE7FEE76D210008EB
:10012000ED0000080649074A0868504343F23902C7
:10013000104408604008704701490860704700009B
:10014000F40200206D4EC64140EA01039B0703D034
:1001500009E008C9121F08C0042AFAD203E011F806
:10016000013B00F8013B521EF9D27047421C10F8C7
:10017000011B0029FBD1801A704730B50B460146A0
:1001800000202022012409E021FA02F59D4205D336
:1001900003FA02F5491B04FA02F52844151EA2F1E0
:1001A0000102F1DC30BD0000064C074D06E0E068BE
:1001B00040F0010394E8070098471034AC42F6D3AE
:1001C000FFF798FF545300087453000870B58C185B
:1001D00010F8015B15F0070301D110F8013B2A115B
:1001E00006D110F8012B03E010F8016B01F8016B48
:1001F0005B1EF9D12B0705D40023521E0DD401F844
:10020000013BFAE710F8013BCB1A921C03E013F80C
:10021000015B01F8015B521EF9D5A142D8D3002041
:1002200070BD21B1826842F00102826003E0826801
:1002300022F001028260704721B1826842F480722C
:10024000826003E0826822F4807282607047014617
:1002500000208A6802F004020AB1012000E00020B8
:100260007047014600208A6802F008020AB10120A6
:1002700000E000207047000030B502460020002357
:1002800050680F4C20400D790C6844EA0524204347
:10029000506090680B4C2040D1E902542C434D79BA
:1002A00044EA450420439060D06A20F470000C7C3E
:1002B000641EE4B2234340EA0350D06230BD000024
:1002C000FFFEF0FFFDF7F1FFF0B504460D460020FC
:1002D0000021092D11DDE068A5F10A0606EB4607AD
:1002E000072606FA07F18843A5F10A0606EB46063B
:1002F00003FA06F10843E0600CE0206905EB4507CE
:10030000072606FA07F1884305EB450603FA06F1CE
:1003100008432061072A0FDA606B561E06EB86073A
:100320001F2606FA07F18843561E06EB860605FAD5
:1003300006F10843606322E00D2A0FDA206BD61F16
:1003400006EB86071F2606FA07F18843D61F06EB41
:10035000860605FA06F10843206310E0E06AA2F180
:100360000D0606EB86071F2606FA07F18843A2F161
:100370000D0606EB860605FA06F10843E062F0BDBD
:10038000816841F008018160704721B1826842F4C0
:10039000A002826003E0826822F4A00282607047BB
:1003A000816841F0040181607047000000B591B0A0
:1003B00001214FF4027001F061F80121084601F0BB
:1003C0002DF80320ADF8400000208DF8430010A95F
:1003D000694800F0E7FA694800F004FA68480590B7
:1003E000684806900020079010200890002009908F
:1003F00080200A9040000B9080000C9020200D90EF
:1004000000020E9000200F9005A95C4800F0AAFAA7
:1004100001215A4800F0DAF94FF4004000F0F2FFF1
:100420000020009001208DF8040000208DF80500C8
:100430004FF4602002900020039010208DF81000EF
:1004400069464F484C38FFF717FF07230122082160
:100450004B484C38FFF738FF072302220821484851
:100460004C38FFF731FF07230322082144484C385A
:10047000FFF72AFF07230422082141484C38FFF7E1
:1004800023FF0723052208213D484C38FFF71CFFB6
:100490000723062208213A484C38FFF715FF0723A7
:1004A0001A46082136484C38FFF70EFF072308226A
:1004B000114633484C38FFF707FF0723092211463E
:1004C0002F484C38FFF700FF07230A2209212C4848
:1004D0004C38FFF7F9FE07230B22092128484C3836
:1004E000FFF7F2FE07230C22092125484C38FFF7BD
:1004F000EBFE07230D22092121484C38FFF7E4FECB
:1005000007230E2209211E484C38FFF7DDFE072382
:100510000F2209211A484C38FFF7D6FE0723102274
:10052000092117484C38FFF7CFFE012114484C38F9
:10053000FFF782FE012112484C38FFF772FE104887
:100540004C38FFF71DFF00BF0D484C38FFF789FE00
:100550000028F9D10A484C38FFF722FF00BF0848AD
:100560004C38FFF774FE0028F9D1012104484C38BB
:10057000FFF70BFF11B000BD000C01400800024066
:100580004C240140FC16002030B5A1B00446207870
:1005900000F00700012817D145480068401C444975
:1005A00008600A2810D98022424901A8FFF7CCFD33
:1005B00001A8FFF7DBFD85B2294601A803F0F6FE8E
:1005C00000203B49086071E0207800F00700022815
:1005D0001CD137480068401C354908600A2815D9E5
:1005E00035480078C0F3031234A1374803F0CEFF3A
:1005F00004F58170FFF7BAFD85B2294604F58170D4
:1006000003F0D4FE00202A4908604FE0207800F073
:100610000700032817D126480068401C24490860B9
:100620000A2810D924490978C1F30311274A52F83E
:10063000210003F01DFC208820F00700208000200E
:100640001B49086032E0207800F00700042815D12B
:100650002078C0F3031219A11B4803F097FF04F59B
:100660008170FFF783FD85B2294604F5817003F0A0
:100670009DFE208820F00700208017E0207800F001
:100680000700052812D180220A49803101A8FFF70E
:100690005BFD01A8FFF76AFD85B2294601A803F0BA
:1006A00085FE208820F00700208000BF21B030BDEB
:1006B00030000020644C00081C17002041542B42DD
:1006C00041554425640D0A001E1800200C0000202E
:1006D0007047000010B50548006800F00F0403489B
:1006E00044602046FFF7F4FF10BD00000000024008
:1006F0007047000010B505480068C0F303142001DE
:10070000024948602046FFF7F3FF10BD0000024099
:100710007047000010B505480068C0F303242002AC
:10072000024948602046FFF7F3FF10BD0000024079
:100730007047000010B505480068C0F3033420037B
:10074000024948602046FFF7F3FF10BD0000024059
:100750007047000010B505480068C0F3034420044A
:10076000024948602046FFF7F3FF10BD0000024039
:100770007047000010B505480068C0F30354200519
:10078000024948602046FFF7F3FF10BD0000024019
:100790007047000010B505480068C0F303642006E8
:1007A000024948602046FFF7F3FF10BD00000240F9
:1007B00000F0805111B10349086001E0024948602E
:1007C00070470000040402400000024021B10268AA
:1007D00042F00102026004E002684FF6FE731A4024
:1007E0000260704701684FF6FE72114001600021FF
:1007F000016041608160C1604B49884208D14A492B
:100800000839496841F00F01474A083A51608AE0C7
:1008100045491431884208D143490839496841F0B3
:10082000F001414A083A51607DE03F492831884251
:1008300008D13D490839496841F470613A4A083A9B
:10084000516070E038493C31884208D13649083956
:10085000496841F47041344A083A516063E03249D2
:100860005031884208D130490839496841F4702133
:100870002D4A083A516056E02B496431884208D12C
:1008800029490839496841F47001274A083A5160FA
:1008900049E025497831884208D123490839496817
:1008A00041F07061204A083A51603CE01F4988429B
:1008B00006D1011F096841F00F01021F116032E0EB
:1008C0001A491431884208D11849091F096841F0B2
:1008D000F001164A121F116025E0144928318842A0
:1008E00008D11249091F096841F470610F4A121FAB
:1008F000116018E00D493C31884208D10B49091FAD
:10090000096841F47041094A121F11600BE0074960
:100910005031884207D10549091F096841F4702107
:10092000024A121F1160704708000240080402408A
:100930000146486880B2704701460020002201F05D
:10094000805313B1054B1A6801E0054B1A6802EA9F
:1009500001030BB1012000E00020704700040240B9
:100960000000024010B50022026847F6F0739A4377
:100970000C6A8B6823430C6923434C6923438C69BD
:100980002343CC6923434C6A23438C6A23431A4391
:100990000260CB6843600B6883604B68C36010BD26
:1009A000416070472DE9F0410246002500260020F5
:1009B00000230024002791F803C00CF00F0591F8E4
:1009C00003C00CF0100CBCF1000F03D091F802C072
:1009D0004CEA050591F800C0BCF1000F31D0146855
:1009E00000202BE04FF0010C0CFA00F3B1F800C02E
:1009F0000CEA03069E4220D183004FF00F0C0CFA44
:100A000003F7BC4305FA03FC4CEA040491F803C065
:100A1000BCF1280F06D14FF0010C0CFA00FCC2F813
:100A200014C00AE091F803C0BCF1480F05D14FF0A3
:100A3000010C0CFA00FCC2F810C0401C0828D1D3ED
:100A40001460B1F800C0BCF1FF0F34DD5468002021
:100A50002EE000F1080C4FF0010808FA0CF3B1F891
:100A600000C00CEA03069E4221D183004FF00F0C18
:100A70000CFA03F7BC4305FA03FC4CEA040491F8B2
:100A800003C0BCF1280F05D100F1080C08FA0CF8DE
:100A9000C2F8148091F803C0BCF1480F07D100F1EF
:100AA000080C4FF0010808FA0CF8C2F81080401C3E
:100AB0000828CED35460BDE8F081416170470161E0
:100AC0007047704710B504460220FFF735FF002835
:100AD0003ED00020214908702148008820494988DB
:100AE00008441F49898808441D49C98808441C498D
:100AF000098908441A4949890844194989890844D7
:100B00001749C9890844C0F3CF0020801448008ADF
:100B10001349498A08441249898A08441049C98AF4
:100B200008440F49098B08440D49498B08440C4976
:100B3000898B08440A49C98B0844C0F3CF00608000
:100B40000220FFF735FE01210648FFF71EFC04E0F6
:100B500002480078401C0149087010BD08000020C0
:100B6000FC1600200024014070B502460024002538
:100B700000230020958A138B1B0445EA030626F008
:100B80007F4404EA01068E4201D1012000E00020EA
:100B900070BD21B1028842F00102028004E00288A7
:100BA0004FF6FE731A4002807047000010B50446ED
:100BB0000B48844209D10121480500F04FFC002177
:100BC0004FF4001000F04AFC08E00121880500F015
:100BD00045FC00214FF4800000F040FC10BD0000F7
:100BE0000054004021B1028842F48072028004E087
:100BF00002884FF6FF631A400280704721B10288D5
:100C000042F40072028004E002884FF6FF531A405B
:100C1000028070472DE9F04385B004460D4600265A
:100C2000B1460427DFF8CC80A6884FF6C070064096
:100C3000684600F033FCDDF808802F48B8FBF0F080
:100C40001FFA80F946EA0906A68020884FF6FE7151
:100C50000840208000262949286888420CD8286846
:100C60004000B8FBF0F087B2042F00DA04273E43BF
:100C700009F10100208427E0E8884BF6FF718842E3
:100C800006D1286800EB4000B8FBF0F087B209E01D
:100C9000286800EBC00101EB0010B8FBF0F087B250
:100CA00047F48047C7F30B0008B947F0010747F442
:100CB000004006434FF4967009FB00F04FF47A7140
:100CC00090FBF1F0401C2084A683208840F00100B6
:100CD000208026884FF6F5300640A88869890843A9
:100CE00006432680A88929890843208105B0BDE8EC
:100CF000F083000000127A0040420F00A08601003D
:100D000012B141F0010102E04FF6FE731940018279
:100D1000704701827047000000B585B001210820AE
:100D200000F0ACFB0121480500F088FBC020ADF8C5
:100D3000100003208DF812001C208DF8130004A968
:100D40001148FFF72FFE1148FFF730FF0020ADF8E4
:100D500004004BF6FF70ADF806007720ADF80800F0
:100D60004FF48060ADF80A000001ADF80C000848AF
:100D7000009069460548FFF74DFF01210348FFF742
:100D800008FF05B000BD0000000C01400054004009
:100D900040420F002DE9F0410546884614461E46A4
:100DA000002714B90120BDE8F08101211D48FFF79B
:100DB00019FF00BF1C491B48FFF7D6FE0028F9D0D9
:100DC000002229461748FFF79BFF00BF1749154827
:100DD000FFF7CAFE0028F9D041461248FFF799FFF5
:100DE00000BF1249891E0F48FFF7BEFE0028F8D049
:100DF0000FE0F15D0B48FFF78CFF00BF0B49891C2A
:100E00000848FFF7B1FE0028F8D0781CC7B2601E72
:100E1000C4B2002CEDD101210248FFF7EFFE012002
:100E2000C1E70000005400400100030082000700F9
:100E300070B5002100230F22C47804B3154C246838
:100E400004F4E064C4F5E064210AC1F10403CA407B
:100E5000447804FA03F184781440214309010E4CCC
:100E60000678A155047804F01F050124AC400578EC
:100E70006D11AD0005F1E025C5F8004109E00478E9
:100E800004F01F050124AC40044D0678761145F8A6
:100E9000264070BD0CED00E000E400E080E100E0E1
:100EA00002490143024A1160704700000000FA0540
:100EB0000CED00E008B50121082000F0DFFA4FF446
:100EC0007040ADF8000010208DF8030003208DF86D
:100ED000020069460E48FFF765FD4FF470410C486B
:100EE000FFF7EDFDFFF718FF0A49782000F014F82E
:100EF000084924317A2000F00FF8064948317C2057
:100F000000F00AF803496C317E2000F005F808BDB6
:100F1000000C014035000020F8B506460D460020C3
:100F200000906B4601224F213046FFF733FF01202E
:100F300000906B46012200213046FFF72BFF2B4625
:100F4000242201213046FFF725FF072000900124CD
:100F500009E004F12500C1B26B4601223046FFF7DB
:100F600019FF601CC4B2242CF3DD012000906B46F5
:100F700001224B213046FFF70DFF002000906B4609
:100F8000012225213046FFF705FFF8BD00B50F48C7
:100F9000007830B1012808D002280AD003280FD1E8
:100FA0000BE00A4800F014F80EE0084800F040F8A2
:100FB0000AE0064800F08CF806E000F039F903E09A
:100FC00000200249087000BF00BF00BDD200002011
:100FD00000231549097D154A53541349097D491CBD
:100FE00053541149097D891C53540F49097DC91C6B
:100FF0000D4A11751146097D902904DB00211175F8
:101000000178491C017008490B7D097D074A53543A
:1010100005490B7D097D491C535403490B7D097D0E
:10102000891C535470470000000300203500002045
:1010300000232549097D254A53542349097D491C2C
:1010400053542149097D891C53541F49097DC1F11D
:101050008D0153541C49097DC1F18E0153541A4925
:10106000097DC1F18F0153541749097DC91C164AE6
:1010700011751146097D482904DB0021117501789D
:10108000491C017010490B7D097D104A53540E49CB
:101090000B7D097D491C53540B490B7D097D891C2F
:1010A000535409490B7D097DC1F18D015354064903
:1010B0000B7D097DC1F18E01535403490B7D097DE0
:1010C000C1F18F0153547047000300203500002008
:1010D00000235549097D554A53545349097D491CFC
:1010E00053545149097D891C53544F49097DC1F11D
:1010F000470153544C49097DC1F1480153544A49B1
:10110000097DC1F1490153544749097D4831535480
:101110004549097D493153544349097D4A31535466
:101120004149097DC1F18D0153543F49097DC1F108
:101130008E0153543C49097DC1F18F0153543A4902
:10114000097DC91C384A11751146097D242904DB23
:10115000002111750178491C01703349097D890608
:101160000B0E3149097D314A53542F49097D8906B7
:101170000B0E2D49097D491C53542B49097D8906C5
:101180000B0E2949097D891C53542749097D89067D
:101190000B0E2549097DC1F1470153542249097DB0
:1011A00089060B0E2049097DC1F1480153541E499F
:1011B000097D89060B0E1C49097DC1F14901535473
:1011C0001949097D89060B0E1749097D4831535489
:1011D0001549097D89060B0E1349097D4931535480
:1011E0001149097D89060B0E0F49097D4A31535477
:1011F0000D49097D89060B0E0B49097DC1F18D0151
:1012000053540949097D89060B0E0749097DC1F12F
:101210008E0153540449097D89060B0E0249097D4C
:10122000C1F18F01535470470003002035000020A6
:101230003648007850BB3648007D401CC0B2344967
:101240000875202832DB3148007808B9012000E019
:1012500000202E4908702F48006880302D49086012
:10126000084600686FF07F41884202D30820294970
:101270000860284800782849087026480088000A35
:10128000487024480068000C88700FE02048007DFA
:10129000401EC0B21E490875012807DC1B480078B3
:1012A00008B9012000E00020184908701A480078A9
:1012B0001749097D4843C0F347101849087016487C
:1012C00040781349097D4843C0F3471013494870DB
:1012D000114880780E49097D4843C0F347100F49F3
:1012E000887000200FE00D490A780D490A540B4917
:1012F0004B780B49421C8B5408498B780849821C57
:101300008B54C11CC8B29028EDDB7047C60000208A
:1013100000030020C8000020CF000020CC000020E7
:101320003500002038B5044600200090631C2422BC
:1013300001217820FFF72EFD04F12503242201214D
:101340007A20FFF727FD04F14903242201217C20A4
:10135000FFF720FD04F16D03242201217E20FFF719
:1013600019FD6B46012225217820FFF713FD6B46FE
:10137000012225217A20FFF70DFD6B460122252150
:101380007C20FFF707FD6B46012225217E20FFF719
:1013900001FD38BD38B504462346242201217820BA
:1013A000FFF7F8FC04F12403242201217A20FFF73F
:1013B000F1FC04F14803242201217C20FFF7EAFC20
:1013C00004F16C03242201217E20FFF7E3FC0020BE
:1013D00000906B46012225217820FFF7DBFC6B464D
:1013E000012225217A20FFF7D5FC6B460122252119
:1013F0007C20FFF7CFFC6B46012225217E20FFF7E2
:10140000C9FC38BD01460020034A506820F4404022
:1014100008435060704700000010024029B1064A9E
:1014200052690243044B5A6104E0034A5269824301
:10143000014B5A61704700000010024029B1064A72
:10144000D2690243044BDA6104E0034AD269824361
:10145000014BDA61704700000010024029B1064AD2
:1014600012690243044B1A6104E0034A1269824381
:10147000014B1A61704700000010024029B1064A72
:1014800092690243044B9A6104E0034A92698243E1
:10149000014B9A61704700000010024030B50021F6
:1014A0000022002400232D4D6D6805F00C0121B1B0
:1014B000042905D0082923D105E0294D056022E043
:1014C000274D05601FE0254D6D6805F47012234D12
:1014D0006D6805F48034022505EB92421CB9214D5C
:1014E000554305600BE01D4D6D6805F400351DB1D9
:1014F0001C4D5543056002E0194D5543056002E05F
:10150000174D056000BF00BF144D6D6805F0F00178
:101510000909154D6B5C0568DD4045600F4D6D6830
:1015200005F4E061090A104D6B5C4568DD4085609B
:101530000A4D6D6805F46051C90A0B4D6B5C456836
:10154000DD40C560054D6D6805F44041890B074DD0
:101550006B5CC568B5FBF3F5056130BD001002405A
:1015600000127A0000093D00DD020020ED0200209B
:1015700000B587B0012141F20400FFF77FFFA020F2
:10158000ADF8040018208DF8070003208DF8060040
:1015900001A92048FFF706FAA0211E48FFF78FFA9D
:1015A0004020ADF8040010208DF8070003208DF8CE
:1015B000060001A91748FFF7F5F940211548FFF784
:1015C0007EFA4FF44040ADF808004FF48270ADF859
:1015D0000A004FF40060ADF80C000020ADF80E00DA
:1015E000ADF810004FF40070ADF812001020ADF807
:1015F00014008020ADF816000720ADF8180002A9ED
:10160000054800F02DF80121034800F01BF807B051
:1016100000BD0000000801400030014010B5044644
:1016200040210648FFF74BFA2146054800F016F81E
:1016300040210248FFF741FA10BD000000080140B8
:101640000030014021B1028842F04002028004E0F3
:1016500002884FF6BF731A4002807047818170473D
:1016600010B50022028802F441520B884C882343B3
:101670008C882343CC8823430C8923434C89234300
:101680008C892343CC8923431A430280838B4FF2F6
:10169000FF74234083830B8A038210BD10B500F0D2
:1016A00001F810BD0CB5002001900090334800688F
:1016B00040F480303149086000BF3048006800F4D1
:1016C000003000900198401C0190009818B90198D2
:1016D000B0F5A06FF1D12948006800F4003010B1D6
:1016E0000120009001E0002000900098012843D1E3
:1016F0002348006840F0100021490860084600684F
:1017000020F0030008600846006840F0020008600E
:101710001A484068194948600846406848600846C9
:10172000406840F4806048600846406820F47C10BF
:1017300048600846406840F4E81048600846006881
:1017400040F08070086000BF0C48006800F0007036
:101750000028F9D00948406820F003000749486094
:101760000846406840F00200486000BF03484068F7
:1017700000F00C000828F9D10CBD00000010024058
:101780000020024070B5614804686148007830B9B3
:1017900001205F4908708107888CFEF7CDFC00BFEF
:1017A0004FF08040808C7F21B1EB202F01DA0120A7
:1017B00000E0002057490968087056480068007822
:1017C00058BBFEF7AFFC0546C01705EBD0604011D3
:1017D000A5EB40104F4909684870FEF7A3FC302183
:1017E00090FBF1F201FB12004A4909688870FEF78C
:1017F00099FCC0F3472047490968C870FEF792FC7E
:10180000C0F34721434800680171FEF78BFCC0F329
:1018100047214048006841712CE0FEF783FC0546F3
:10182000C01705EB90608011A5EB8010394909685D
:101830004870FEF777FC0546C01705EB10700011E5
:10184000A5EB0010334909688870FEF76BFCC0F304
:10185000472030490968C870FEF764FCC0F347218F
:101860002C4800680171FEF75DFCC0F34721294850
:10187000006841712548046813E02078254909680B
:10188000097888420CD160782249096849788842F1
:1018900006D1A0781F4909688978884200D17FE77E
:1018A000A468002CE9D100201A4909688860194809
:1018B00000680078A8B917480068407800EBC001BC
:1018C000154800EB011013490968897801EB4101C3
:1018D000084410490968B1F80320028049798170F1
:1018E00012E00C48006841780C4830F811000949B2
:1018F00009688A7801219140084381B2054800684F
:101900004278064820F8121070BD0000D402002072
:10191000DC020020D802002058040020160300201A
:1019200070B506460C2003F027F9434908600020F3
:1019300009680870102040490968487018203E491D
:10194000096888703C4800683188A0F80310B178B5
:10195000417100203849096888600C2003F00CF9B7
:10196000364908600020096808701020334909686A
:101970004870062031490968887050202F4909684D
:10198000C87000212D480068017150212B48006863
:10199000417100202949096888602748046800E0EF
:1019A000A468A0680028FBD1012516E00C2003F0F4
:1019B000E3F8A060A46800202070C5F110006070FA
:1019C0001820A0700020E070C5EB8510C0F1FF006A
:1019D000207100216171681CC5B2022DE6DD002076
:1019E000A060154804680FE0607800EBC00114485F
:1019F00000EB0110A17801EB41010844B4F8031099
:101A0000018061798170A468002CEDD10B480068D9
:101A1000407800EBC0010A4800EB01100749096853
:101A2000897801EB4101084404490968B1F80320B1
:101A300002804979817070BDD4020020D802002054
:101A40005804002010B54848046830E0207808BBEE
:101A50000021607800EBC002444800EB0210A2783D
:101A600002EB42028154607800EBC0023F4800EB79
:101A70000210A27802EB420210444170607800EB41
:101A8000C0023A4800EB0210A27802EB4202104476
:101A900081700BE06178364830F81100A27801219E
:101AA000914088436278324921F81200A468002CE2
:101AB000CCD130480068007868BB00212D48006810
:101AC000407800EBC002294800EB0210294A126856
:101AD000927802EB4202815426480068407800EB7D
:101AE000C002224800EB0210224A1268927802EBF0
:101AF0004202104441701F480068407800EBC00269
:101B00001A4800EB02101B4A1268927802EB42025C
:101B10001044817011E0174800684178144830F88B
:101B20001100144909688A780121914088431149BC
:101B300009684A780E4921F812000B48006838B14C
:101B40000948006802F0FCFE002007490968886027
:101B50000848006838B10748006802F0F1FE00202C
:101B600004490968886010BDD40200205804002090
:101B700016030020D80200202DE9F04780460026F9
:101B80000027B146FE48056800240C2002F0F4FF4F
:101B90000446AD681EE02878F9490968097888424A
:101BA00017D16878F64909684978884211D1A87830
:101BB000F3490968897888420BD1F248D0F8F403D8
:101BC00020F4806000F58060EE49C1F8F403BDE8C0
:101BD000F087AD68002DDED108F00F0030B101288C
:101BE00007D0022807D003280AD107E04FF0FF37BB
:101BF00007E0012705E04FF0FF3602E0012600E094
:101C0000E5E700BFE04800680078DD490968097829
:101C1000884277D1DC4800684078D949096849781A
:101C20008842F6D1D84800688078D5490968897813
:101C30008842EED1D248006800784FFA80F9D04847
:101C40000068007890BBCE480068807840B9002FCB
:101C500006DA0120CA49096808700F20A07012E056
:101C6000C748006880782F2808D1002F06DD0120A2
:101C7000C349096808700020A07004E0C0480068EB
:101C800080783844A070BE480068407820B9002EA3
:101C900002DA1F20607048E0B948006840781F28C9
:101CA00005D1002E03DD002060703EE005E0B44861
:101CB000006840783044607037E0B1480068407890
:101CC00020B9002E02DA1F2060700EE0AC480068D8
:101CD00040781F2804D1002E02DD0020607004E04F
:101CE000A7480068407830446070A5480068807854
:101CF00048B9002F07DA0020A149096808702F2091
:101D0000A07012E08FE09E48006880780F2807D10D
:101D1000002F05DD00209A4909680870A07004E0D2
:101D20009748006880783844A0709548006800782B
:101D300020709349096881F8009091480068B0F8D4
:101D40000310A4F80310407960718D4800688E4933
:101D50000968B1F80320A0F8032049794171884847
:101D60000068A0608648046000680078A8B98448CC
:101D70000068407800EBC001844800EB0110804906
:101D80000968897801EB410108447D490968B1F887
:101D9000032002804979817012E079480068417817
:101DA0007B4830F81100764909688A780121914012
:101DB000084381B2724800684278754820F81210D2
:101DC0006F48006880680078B8B96D48006880681E
:101DD000407800EBC0016D4800EB011068490968CC
:101DE0008968897801EB4101084467490968B1F8BD
:101DF000032002804979817012E0614800684178CF
:101E0000634830F811005E4909688A7801219140E1
:101E1000084381B25A48006842785D4820F81210A1
:101E2000FFF7B0FC5AE15648006800784FFA80F995
:101E3000534800680078E8BB51480068407820B9F2
:101E4000002E02DA1F2060700EE04D4800684078D6
:101E50001F2804D1002E02DD0020607004E04848F5
:101E6000006840783044607045480068807880B9E8
:101E7000002F0EDA01204249096808706178880154
:101E8000C11700EBD161C1F3471161700F20A07041
:101E900063E03B48006880782F2812D1002F10DDC6
:101EA000012037490968087061788801C11700EB83
:101EB000D16100E00BE0C1F3471161700020A07018
:101EC0004BE02F48006880783844A07045E02C48EB
:101ED0000068407820B9002E02DA3F2060700EE0E2
:101EE0002748006840783F2804D1002E02DD0020FA
:101EF000607004E0224800684078304460702048F8
:101F00000068807878B9002F0DDA00201C49096834
:101F1000087061784801C11700EB91618911617007
:101F20002F20A07019E01648006880780F280FD184
:101F3000002F0DDD00201249096808706178480102
:101F4000C11700EB9161891161700020A07004E05D
:101F50000B48006880783844A07009480068007811
:101F600020700749096881F8009005480068B0F8BA
:101F70000310A4F80310407960710148006809E07B
:101F8000D402002000130020D802002058040020B2
:101F900016030020A0605848046000680078A8B9C3
:101FA00055480068407800EBC001544800EB011030
:101FB00051490968897801EB410108444E49096893
:101FC000B1F8032002804979817012E04A48006824
:101FD00041784B4830F81100474909688A78012157
:101FE0009140084381B2444800684278444820F850
:101FF0001210414805682EE0A8688168B1F80320F6
:10200000A0F8032049794171A868007890B9A868C0
:10201000407800EBC001394800EB0110A9688978CD
:1020200001EB41010844A968B1F803200280497915
:1020300081700FE0A8684178314830F81100A96834
:102040008A7801219140084381B2A86842782C48DF
:1020500020F81210AD68A86880680028CCD1A86864
:10206000007838BB0021A868407800EBC002234804
:1020700000EB0210AA68927802EB42028154A86831
:10208000407800EBC0021D4800EB0210AA6892786D
:1020900002EB420210444170A868407800EBC00295
:1020A000164800EB0210AA68927802EB4202104434
:1020B00081700EE0A8684178114830F81100A968D5
:1020C0008A78012191408843A9684A780C4921F80F
:1020D0001200A86802F034FC0020A8600948B0F89B
:1020E000F403010B0748D0F8F40361F313400549EA
:1020F000C1F8F40300BF6AE5D402002058040020B0
:102100001603002000130020042808D14FF0E0211E
:10211000096941F004014FF0E022116107E04FF03E
:10212000E021096921F004014FF0E02211617047BC
:1021300010B504466FF00400FFF7E6FFE11704EB6B
:102140005171C1F3C701074A11701046007800EBC6
:102150004001C1EBC0104FF6FF7101EAC000024917
:10216000088010BD040000200600002010B51348B0
:10217000006840F0010011490860084640681049B5
:1021800008400E494860084600680E4908400B495F
:1021900008600846006820F480200860084640680F
:1021A00020F4FE0048604FF41F008860FFF776FAC5
:1021B0004FF000600449086010BD000000100240AC
:1021C0000000FFF8FFFFF6FE08ED00E0F0B50C465A
:1021D000154600220021068C4FF6FE773E4006840D
:1021E000028B018C4FF60C7632407E1C06EA0316F9
:1021F0002E433243104EB0420ED0104EB0420BD0A0
:10220000B0F1804F08D00E4EB04205D00D4EB04216
:1022100002D00D4EB04206D14FF6FD76314044F06B
:102220000106314305E04FF6F576314044F00106F2
:10223000314302830184F0BD002C01400034014091
:102240000004004000080040000C0040F0B50C46BF
:102250001546002200210026078C4FF6EF7C07EA86
:102260000C070784028B018C4FF6FF7707EA0416F0
:1022700040F6FF473A404FF6FF7707EA03373A4305
:102280004FF6FF7707EA05273A43114FB8420ED0C1
:10229000104FB8420BD0B0F1804F08D00E4FB8426B
:1022A00005D00E4FB84202D00D4FB84206D14FF6BE
:1022B000DF77394046F01007394305E04FF65F7786
:1022C000394044F01007394302830184F0BD000017
:1022D000002C014000340140000400400008004090
:1022E000000C0040F0B50C461546002200210026E7
:1022F000078C4FF6FF6C07EA0C070784828B018C72
:102300004FF6FF7707EA04264FF60C773A404FF670
:10231000FF7707EA03172F433A43114FB8420ED015
:10232000104FB8420BD0B0F1804F08D00E4FB842DA
:1023300005D00E4FB84202D00D4FB84206D14FF62D
:10234000FF57394046F48077394305E04FF2FF5795
:10235000394044F48077394382830184F0BD000022
:10236000002C0140003401400004004000080040FF
:10237000000C0040F0B50C46154600220021002656
:10238000078C4EF6FF7C07EA0C070784828B018CD2
:102390004FF6FF7707EA043640F6FF473A404FF61C
:1023A000FF7707EA05273A434FF6FF7707EA033737
:1023B0003A43114FB8420ED0104FB8420BD0B0F193
:1023C000804F08D00E4FB84205D00E4FB84202D011
:1023D0000D4FB84206D14DF6FF77394046F480578D
:1023E000394305E047F6FF57394044F480573943F5
:1023F00082830184F0BD0000002C014000340140C4
:102400000004004000080040000C00401FB50446D6
:102410000121C802FFF732F842F2107090FBF4F08D
:10242000401E80B2ADF8080041F61F40ADF8040030
:102430000020ADF80A00ADF806008DF80C0001A9E7
:10244000104801F0C3FC01210E4801F00FFC0122ED
:1024500011460C4801F084FC4FF4A060FEF720FD0B
:1024600019208DF8000001208DF801008DF8020080
:102470008DF803006846FEF7DBFC0121014801F0FE
:10248000F8FB1FBD002C01402DE9F041002402257E
:102490000121FE4801F0FCFB00287DD06807808CFC
:1024A00006B20121F94801F0E1FBF948B0F8F40364
:1024B000C0F34020E8B1F648B0F8F403000AC14385
:1024C000F348D0F8F40361F30820F149C1F8F403AC
:1024D0000846B0F8F403C0F3002020B14FF4704078
:1024E000EC49086009E04FF47040EA49091D0860B2
:1024F00003E04FF47040E7490860E748407A401C29
:10250000C0B2E5494872097A884203DB0020E249FB
:10251000487201E0BDE8F081DD4890F8F40300F076
:102520000F0009287ED2DFE810F0090023007F02A7
:102530009D023005440526073E076009D648C07A4B
:10254000D649085C2038D64901EB0011D248407BBF
:10255000401C095CD048C07AD04A105C2038D04A70
:1025600002EB0010CC4A527B805C41EA0024FCE381
:10257000C948C07AC949085C2038C94901EB001034
:10258000C549497BC1F10F01405C0021C248C07AB6
:10259000C24A105C203800E0E8E3C14A02EB0010B8
:1025A000BD4A527BC2F10E02805C41EA002001125A
:1025B000B948C07AB94A105C2038B94A02EB001019
:1025C000B54A527BC2F10E02825CB348C07AB34B6B
:1025D000185C2038B24B03EB0010AF4B5B7BC3F1B0
:1025E0000F03C05C62F31F2041EA00204FF2F001AC
:1025F00008400111A848C07AA84A105C2038A84AAF
:1026000002EB0010A44A527BC2F10F02805C002250
:10261000A148C07AA14B185C2038A14B03EB0010F5
:102620009D4B00E0FDE35B7BC3F10E03C05C42EA1F
:10263000002002129848C07A984B185C2038984BBA
:1026400003EB0010944B5B7BC3F10E03C35C924819
:10265000C07A924F385C2038914F07EB00108E4FB4
:102660007F7BC7F10F07C05D63F31F2042EA0020A4
:1026700040F60F72104041EA00104CF6CC41084081
:1026800081108548C07A854A105C2038844A02EB64
:102690000010814A527BC2F10F02805C00227E480A
:1026A000C07A7E4B185C20387D4B03EB00107A4BD0
:1026B0005B7BC3F10E03C05C42EA00200212764845
:1026C000C07A764B185C2038754B03EB0010724BC8
:1026D0005B7BC3F10E03C35C6F48C07A6F4F385CFD
:1026E00020386F4F07EB00106B4F7F7BC7F10F0750
:1026F000C05D63F31F2042EA00204FF2F002104059
:1027000002116548C07A654B185C2038644B03EBB6
:102710000010614B5B7BC3F10F03C05C00235E487C
:10272000C07A5E4F385C20385D4F07EB00105A4F7F
:102730007F7BC7F10E07C05D43EA002003125648B5
:10274000C07A564F385C2038554F07EB0010524F77
:102750007F7BC7F10E07C75D4F48C07ADFF83CC1E9
:102760001CF800002038DFF838C10CEB0010DFF84F
:1027700028C19CF80DC0CCF10F0C10F80C0067F3C9
:102780001F2043EA002040F60F73184042EA001071
:1027900043F23332104041EA80004AF6AA21084051
:1027A00041103D48C07A3D4A105C20383C4A02EB5B
:1027B0000010394A527BC2F10F02805C0022364879
:1027C000C07A364B185C2038354B03EB0010324B87
:1027D0005B7BC3F10E03C05C42EA002002122E486C
:1027E000C07A2E4B185C20382D4B03EB00102A4B7F
:1027F0005B7BC3F10E03C35C2748C07A274F385C6C
:102800002038274F07EB0010234F7F7BC7F10F07BE
:10281000C05D63F31F2042EA00204FF2F002104037
:1028200002111D48C07A1D4B185C20381C4B03EB6D
:102830000010194B5B7BC3F10F03C05C00231648EB
:10284000C07A164F385C2038154F07EB0010124F36
:102850007F7BC7F10E07C05D43EA002003120E48DC
:10286000C07A0E4F385C20380D4F07EB00100A4F2E
:102870007F7BC7F10E07C75D0748C07ADFF81CC031
:102880001CF800002038DFF818C00BE0002C0140D5
:1028900000130020100C0140000300205302002010
:1028A000644D00080CEB0010DFF820C49CF80DC04C
:1028B000CCF10F0C10F80C0067F31F2043EA002046
:1028C00040F60F73184042EA00104CF6CC4210401C
:1028D0008210FE48C07AFE4B185C2038FD4B03EB9B
:1028E0000010FA4B5B7BC3F10F03C05C0023F74879
:1028F000C07AF74F385C2038F64F07EB0010F34FE3
:102900007F7BC7F10E07C05D43EA00200312EF484A
:10291000C07AEF4F385C2038EE4F07EB0010EB4FDA
:102920007F7BC7F10E07C75DE848C07ADFF8A0C318
:102930001CF800002038DFF89CC30CEB0010DFF817
:102940008CC39CF80DC0CCF10F0C10F80C0067F391
:102950001F2043EA00204FF2F00318400311DB4828
:10296000C07ADB4F385C2038DA4F07EB0010D74FC6
:102970007F7BC7F10F07C05D0027D448C07ADFF81E
:1029800050C31CF800002038DFF848C30CEB0010DF
:10299000DFF838C39CF80DC0CCF10E0C10F80C0019
:1029A00047EA00200712C948C07ADFF824C31CF8A0
:1029B00000002038DFF81CC30CEB0010DFF80CC35C
:1029C0009CF80DC0CCF10E0C10F80CC0BF48C07ABA
:1029D000DFF8FC8218F800002038DFF8F88208EBF6
:1029E0000010DFF8E88298F80D80C8F10F0810F8A1
:1029F00008006CF31F2047EA002040F60F773840AC
:102A000043EA001043F23333184042EA800045F2B3
:102A10005552104041EA40008411AF480078000947
:102A200044EA403084B2A2E5A848C07AC0F113005D
:102A3000A749085C2038A74901EB0011A348407B57
:102A4000401C095CA148C07AC0F11300A04A105C88
:102A50002038A04A02EB00109C4A527B805C41EA7D
:102A6000002484E59948C07AC0F113009849085CB5
:102A70002038984901EB00109449497BC1F10F01BE
:102A8000405C00219148C07AC0F11300904A105C6C
:102A90002038904A02EB00108C4A527BC2F10E02A1
:102AA000805C41EA002001128848C07AC0F113001E
:102AB000874A105C2038874A02EB0010834A527B19
:102AC000C2F10E02825C8148C07AC0F11300804BD3
:102AD000185C20387F4B03EB00107C4B5B7BC3F111
:102AE0000F03C05C62F31F2041EA00204FF2F001A7
:102AF000084001117548C07AC0F11300744A105C97
:102B00002038744A02EB0010704A527BC2F10F0267
:102B1000805C00226D48C07AC0F113006C4B185CD9
:102B200020386C4B03EB0010684B5B7BC3F10E034A
:102B3000C05C42EA002002126448C07AC0F113006F
:102B4000634B185C2038634B03EB00105F4B5B7BDF
:102B5000C3F10E03C35C5D48C07AC0F113005C4F43
:102B6000385C20385B4F07EB0010584F7F7BC7F174
:102B70000F07C05D63F31F2042EA002040F60F728A
:102B8000104041EA00104CF6CC41084081104F48FB
:102B9000C07AC0F113004E4A105C20384D4A02EB57
:102BA00000104A4A527BC2F10F02805C0022474863
:102BB000C07AC0F11300464B185C2038454B03EB3C
:102BC0000010424B5B7BC3F10E03C05C42EA002065
:102BD00002123E48C07AC0F113003D4B185C203809
:102BE0003C4B03EB0010394B5B7BC3F10E03C35C22
:102BF0003648C07AC0F11300354F385C2038354F65
:102C000007EB0010314F7F7BC7F10F07C05D63F307
:102C10001F2042EA00204FF2F002104002112B4820
:102C2000C07AC0F113002A4B185C2038294B03EB03
:102C30000010264B5B7BC3F10F03C05C00232348CD
:102C4000C07AC0F11300224F385C2038214F07EBC7
:102C500000101E4F7F7BC7F10E07C05D43EA0020C6
:102C600003121A48C07AC0F11300194F385C20389B
:102C7000184F07EB0010154F7F7BC7F10E07C75D9C
:102C80001248C07AC0F11300DFF844C01CF80000FD
:102C90002038DFF840C00CEB0010DFF830C09CF8A3
:102CA0000DC0CCF10F0C10F80C0067F31F2043EAA5
:102CB000002040F60F73184042EA001043F233320E
:102CC000104041EA80004AF6AA2107E000030020F4
:102CD00053020020644D00081C17002008404110DA
:102CE000FE48C07AC0F11300FD4A105C2038FD4A4E
:102CF00002EB0010F94A527BC2F10F02805C002205
:102D0000F648C07AC0F11300F54B185C2038F54B3B
:102D100003EB0010F14B5B7BC3F10E03C05C42EA96
:102D200000200212ED48C07AC0F11300EC4B185C91
:102D30002038EC4B03EB0010E84B5B7BC3F10E0338
:102D4000C35CE648C07AC0F11300E54F385C203818
:102D5000E44F07EB0010E14F7F7BC7F10F07C05D29
:102D600063F31F2042EA002001E003E3FEE34FF299
:102D7000F00210400211D948C07AC0F11300D84BBC
:102D8000185C2038D74B03EB0010D44B5B7BC3F1AE
:102D90000F03C05C0023D148C07AC0F11300D04FAC
:102DA000385C2038CF4F07EB0010CC4F7F7BC7F14A
:102DB0000E07C05D43EA00200312C848C07AC0F184
:102DC0001300C74F385C2038C64F07EB0010C34FC5
:102DD0007F7BC7F10E07C75DC048C07AC0F1130002
:102DE000DFF8FCC21CF800002038DFF8F8C20CEB5A
:102DF0000010DFF8E8C29CF80DC0CCF10F0C10F801
:102E00000C0067F31F2043EA002040F60F731840C0
:102E100042EA00104CF6CC4210408210AF48C07A13
:102E200000E0FCE3C0F11300AD4B185C2038AD4B63
:102E300003EB0010A94B5B7BC3F10F03C05C0023C5
:102E4000A648C07AC0F11300A54F385C2038A54FC2
:102E500007EB0010A14F7F7BC7F10E07C05D43EA6F
:102E6000002003129D48C07AC0F113009C4F385CCB
:102E700020389C4F07EB0010984F7F7BC7F10E075F
:102E8000C75D9648C07AC0F11300DFF854C21CF841
:102E900000002038DFF84CC20CEB0010DFF83CC219
:102EA0009CF80DC0CCF10F0C10F80C0067F31F203C
:102EB00043EA00204FF2F003184003118748C07A1C
:102EC000C0F11300864F385C2038864F07EB0010A6
:102ED000824F7F7BC7F10F07C05D00277F48C07A14
:102EE000C0F11300DFF8F8C11CF800002038DFF84B
:102EF000F4C10CEB0010DFF8E4C19CF80DC0CCF17C
:102F00000E0C10F80C0047EA002007127348C07A34
:102F1000C0F11300DFF8C8C11CF800002038DFF84A
:102F2000C4C10CEB0010DFF8B4C19CF80DC0CCF1AB
:102F30000E0C10F80CC06948C07AC0F11300DFF81D
:102F4000A08118F800002038DFF8988108EB001005
:102F5000DFF8888198F80D80C8F10F0810F8080094
:102F60006CF31F2047EA002040F60F77384043EA11
:102F7000001043F23333184042EA800045F25552C4
:102F8000104041EA40008411F4E15448C07A5649A7
:102F900001EB00115148407B401C085C4F49C97A45
:102FA000514A02EB01114D4A527B895C40EA0124EF
:102FB000E0E14A48C07A4C4901EB00104749497B9F
:102FC000C1F10F01405C00204449C97A464A02EB36
:102FD0000111424A527BC2F10E02895C40EA012093
:102FE00002123E48C07A404901EB00103B49497B40
:102FF000C1F10E01415C3948C07A3B4B03EB001034
:10300000364B5B7BC3F10F03C05C61F31F2042EAC8
:1030100000204FF2F001084001113048C07A324AD6
:1030200002EB00102D4A527BC2F10F02805C00229D
:103030002A48C07A2C4B03EB0010284B5B7BC3F172
:103040000E03C05C42EA002003122448C07A264ADC
:1030500002EB0010214A527BC2F10E02825C1F4833
:10306000C07A214F07EB00101C4F7F7BC7F10F0781
:10307000C05D62F31F2043EA002040F60F7210404B
:1030800041EA00104CF6CC41084081101348C07A48
:10309000154A02EB0010114A527BC2F10F02805C0C
:1030A00000200E4AD27A104B03EB02120B4B5B7BD3
:1030B000C3F10E03D25C40EA022003120748C07A33
:1030C000094A02EB0010054A527BC2F10E02825CF3
:1030D0000248C07A044F07EB001007E0000300200D
:1030E00053020020644D0008D3000020FE4F7F7B78
:1030F000C7F10F07C05D62F31F2043EA00204FF2C3
:10310000F00210400211F848C07AF84B03EB0010AF
:10311000F54B5B7BC3F10F03C05C0023F248C07A20
:10312000F24F07EB0010F04F7F7BC7F10E07C05D39
:1031300043EA00200312EC48C07AEC4F07EB001082
:10314000E94F7F7BC7F10E07C75DE748C07ADFF81C
:103150009CC30CEB0010DFF890C39CF80DC0CCF1C1
:103160000F0C10F80C0067F31F2043EA002040F614
:103170000F73184042EA001043F23332104041EA24
:1031800080004AF6AA2108404110D748C07AD74AA1
:1031900002EB0010D44A527BC2F10F02805C002087
:1031A000D14AD27AD14B03EB0212CF4B5B7BC3F1F6
:1031B0000E03D25C40EA02200212CB48C07ACB4B0D
:1031C00003EB0010C84B5B7BC3F10E03C35CC64826
:1031D000C07AC64F07EB0010C34F7F7BC7F10F07C4
:1031E000C05D63F31F2042EA00204FF2F00210405E
:1031F0000211BD48C07ABD4B03EB0010BA4B5B7B9C
:10320000C3F10F03C05C0020B74BDB7AB74F07EB6D
:103210000313B54F7F7BC7F10E07DB5D40EA032048
:103220000312B148C07AB14F07EB0010AE4F7F7B5D
:10323000C7F10E07C75DAC48C07ADFF8B0C20CEB2F
:103240000010DFF8A4C29CF80DC0CCF10F0C10F8F0
:103250000C0067F31F2043EA002040F60F7318406C
:1032600042EA00104CF6CC42104082109E48C07AD0
:103270009E4B03EB00109C4B5B7BC3F10F03C05CC8
:103280000020994BDB7A994F07EB0313964F7F7B16
:10329000C7F10E07DB5D40EA032003129248C07AB3
:1032A000924F07EB0010904F7F7BC7F10E07C75D71
:1032B0008D48C07ADFF834C20CEB0010DFF828C26A
:1032C0009CF80DC0CCF10F0C10F80C0067F31F2018
:1032D00043EA00204FF2F003184003118248C07AFD
:1032E000824F07EB0010804F7F7BC7F10F07C05D57
:1032F00000277D48C07ADFF8F4C10CEB0010DFF83E
:10330000E8C19CF80DC0CCF10E0C10F80C0047EA97
:10331000002007127448C07ADFF8D0C10CEB00100F
:10332000DFF8C4C19CF80DC0CCF10E0C10F80CC035
:103330006D48C07ADFF8B48108EB0010DFF8A8818F
:1033400098F80D80C8F10F0810F808006CF31F20E2
:1033500047EA002040F60F77384043EA001043F276
:103360003333184042EA800045F25552104041EA9A
:103370004000C410F1E25C48C07AC0F113005B4920
:1033800001EB00115848407B401C085C5649C97A43
:10339000C1F11301554A02EB0111534A527B895C7A
:1033A00040EA0124D9E25048C07AC0F113004F49E5
:1033B00001EB00104C49497BC1F10F01405C00203A
:1033C0004949C97AC1F11301484A02EB0111464A41
:1033D000527BC2F10E02895C40EA01200112424890
:1033E000C07AC0F11300414A02EB00103E4A527B02
:1033F000C2F10E02825C3C48C07AC0F113003B4B24
:1034000003EB0010384B5B7BC3F10F03C05C62F32E
:103410001F2041EA00204FF2F0010840011132481C
:10342000C07AC0F11300314A02EB00102E4A527BE1
:10343000C2F10F02805C00222B48C07AC0F1130059
:103440002A4B03EB0010284B5B7BC3F10E03C05CDF
:1034500042EA002002122448C07AC0F11300234B34
:1034600003EB0010204B5B7BC3F10E03C35C1E48D3
:10347000C07AC0F113001D4F07EB00101A4F7F7B7D
:10348000C7F10F07C05D63F31F2042EA002040F63A
:103490000F72104041EA00104CF6CC4108408110F8
:1034A0001148C07AC0F11300104A02EB00100E4A16
:1034B000527BC2F10F02805C00200B4AD27AC2F12B
:1034C00013020A4B03EB0212074B5B7BC3F10E03A3
:1034D000D25C40EA022002120348C07AC0F1130015
:1034E000024B03EB001003E000030020D300002098
:1034F000FE4B5B7BC3F10E03C35CFC48C07AC0F19A
:103500001300FB4F07EB0010F84F7F7BC7F10F074D
:10351000C05D63F31F2042EA00204FF2F00210402A
:103520000211F248C07AC0F11300F14B03EB001016
:10353000EE4B5B7BC3F10F03C05C0023EB48C07A0A
:10354000C0F11300EA4F07EB0010E84F7F7BC7F193
:103550000E07C05D43EA00200712E448C07AC0F1BC
:103560001300E34B03EB0010E04B00E021E25B7B38
:10357000C3F10E03C35CDD48C07AC0F11300DFF86D
:1035800070C30CEB0010DFF864C39CF80DC0CCF1E5
:103590000F0C10F80C0063F31F2047EA002040F6E0
:1035A0000F73184042EA001043F23332104041EAF0
:1035B00080004AF6AA2108404110CC48C07AC0F1E8
:1035C0001300CB4A02EB0010C84A527BC2F10F0233
:1035D000805C0020C54AD27AC2F11302C44B03EBCF
:1035E0000212C24B5B7BC3F10E03D25C40EA0220A5
:1035F0000312BE48C07AC0F11300BD4A02EB0010AE
:10360000BA4A527BC2F10E02825CB848C07AC0F15D
:103610001300B74F07EB0010B44F7F7B00E093E13E
:10362000C7F10F07C05D62F31F2043EA00204FF28D
:10363000F00210400311AD48C07AC0F11300AC4A4B
:1036400002EB0010A94A527BC2F10F02805C0022FB
:10365000A648C07AC0F11300A54F07EB0010A34F96
:103660007F7BC7F10E07C05D42EA002002129F482F
:10367000C07AC0F113009E4F07EB00109B4F7F7B79
:10368000C7F10E07C75D9948C07AC0F11300DFF893
:1036900060C20CEB0010DFF854C29CF80DC0CCF1F6
:1036A0000F0C10F80C0067F31F2042EA002040F6D0
:1036B0000F72104043EA00104CF6CC4210408210CA
:1036C0008A48C07AC0F11300894B03EB0010874B86
:1036D0005B7BC3F10F03C05C00238448C07AC0F158
:1036E0001300834F07EB0010804F7F7BC7F10E075D
:1036F000C05D43EA002003127C48C07AC0F1130089
:103700007B4F07EB0010794F7F7BC7F10E07C75D3A
:103710007648C07AC0F11300DFF8D4C10CEB00107A
:10372000DFF8C8C19CF80DC0CCF10F0C10F80C00EC
:1037300067F31F2043EA00204FF2F0031840031103
:103740006A48C07AC0F11300694F07EB0010674F59
:103750007F7BC7F10F07C05D0020644FFF7AC7F180
:103760001307DFF88CC10CEB0717DFF880C19CF85A
:103770000DC0CCF10E0C17F80C7040EA07200712B0
:103780005A48C07AC0F11300DFF864C10CEB001096
:10379000DFF858C19CF80DC0CCF10E0C10F80CC02D
:1037A0005248C07AC0F11300DFF8448108EB0010E2
:1037B000DFF8388198F80D80C8F10F0810F808007C
:1037C0006CF31F2047EA002040F60F77384043EAA9
:1037D000001043F23333184042EA800045F255525C
:1037E000104041EA4000C410B7E04048C17A1630AA
:1037F00030F81100010A3D48C27A163030F8120044
:1038000041EA00204FF2F001084001113748C27A26
:10381000163030F81200020A3448C37A163030F8F5
:10382000130042EA002040F60F72104041EA0010F7
:103830004CF6CC41084081102C48C27A163030F842
:103840001200020A2948C37A163030F8130042EAFF
:1038500000204FF2F002104002112448C37A1630C3
:1038600030F81300030A2148C77A163030F81700E1
:1038700043EA002040F60F73184042EA001043F27A
:103880003332104041EA80004AF6AA210840411034
:103890001648C27A163030F81200020A1348C37A6A
:1038A000163030F8130042EA00204FF2F0021040C8
:1038B00002110E48C37A163030F81300030A0B4881
:1038C000C77A163030F8170043EA002040F60F732D
:1038D000184042EA00104CF6CC42104082100348D7
:1038E000C37A163030F81300030A03E00003002007
:1038F000D30000203048C77A163030F8170043EA6A
:1039000000204FF2F003184003112B48C77A1630FD
:1039100030F81700070A284890F80BC0163030F826
:103920001C0047EA002040F60F77384043EA0010B9
:1039300043F23333184042EA800045F255521040BA
:1039400041EA4004002508E01C48D0F8F40320F0C8
:103950000F011A48C0F8F41300BF00BF2046FDF75E
:103960005DFE2DB11448407B28441349487303E0A1
:103970001148807B104948730F48407B0E49897B72
:1039800088420DDB00200C4948730846C07A401C71
:10399000C0B2C872097B884202DB00200649C872A7
:1039A0004FF08040808C801B81B20448A0F8EA135D
:1039B00000BF00BFFEF7AEBD0003002000130020D3
:1039C00010B50121880700F063F940B10121880793
:1039D00000F04CF91A480068401C1949086002219F
:1039E000480700F055F948B30221480700F03EF9B6
:1039F0004FF0804000F049F904461148008804EB7C
:103A000000401049086000204873C872C87301F56F
:103A10008050D0F8F40320F400110B48C0F8F413E0
:103A2000D0F8F40320F480110748C0F8F413002004
:103A3000034908604FF08041888400BF10BD00003A
:103A400000000020000300200013002000B589B012
:103A500001210846FDF7F2FC01210420FDF70EFDCF
:103A60000120ADF8200004208DF8230008A9244887
:103A7000FCF798FF4FF6FF70ADF818004720ADF83F
:103A800014000020ADF81A00ADF816008DF81C00E7
:103A900005A94FF0804000F099F90020ADF808002A
:103AA0000220ADF80A000120ADF80C000020ADF8AE
:103AB0000E000F20ADF8100002A94FF0804000F07A
:103AC000F9F801220321900700F04AF903214FF091
:103AD000804000F0CBF81C208DF8040000208DF809
:103AE00005008DF8060001208DF8070001A8FDF7FC
:103AF0009FF90121880700F0BCF809B000BD000063
:103B00000008014010B50121344800F0C1F8002838
:103B100061D04FF08040808C04B201212F4800F02A
:103B2000A5F82F4890F8E903401CC1B22C4880F852
:103B3000E91390F8E803814204DB0021284880F86B
:103B4000E91300E010BD2748C07B401CC0B22549E6
:103B5000C873097C88420CDB00202249C8732048C6
:103B6000D0F8F40320F4001000F500101C49C1F84F
:103B7000F4031B4890F8F403C0F3031020B10128AC
:103B800008D0022814D109E0FDF700FA1648FDF725
:103B9000C9FB16E01448FDF7C5FB12E01149C97BCB
:103BA00001EBC102114901EB0210FDF7F3FB08E044
:103BB0000B48D0F8F40320F0F0010948C0F8F413E2
:103BC00000BF00BF4FF08040808C001B81B20448D2
:103BD000A0F8EC1300BF00BFB4E7000000080040ED
:103BE00000130020000300203400002058040020AF
:103BF0001FB5044601210420FDF720FC42F210709D
:103C000090FBF4F0401E80B2ADF8080041F61F4072
:103C1000ADF804000020ADF80A00ADF806008DF8FC
:103C20000C0001A9104800F0D1F801210E4800F065
:103C30001DF8012211460C4800F092F84FF4A060E4
:103C4000FDF72EF91E208DF8000001208DF80100EF
:103C50008DF802008DF803006846FDF7E9F80121B0
:103C6000014800F006F81FBD00080040CA43028268
:103C7000704721B1028842F00102028004E002880C
:103C80004FF6FE731A40028070470146888E7047D7
:103C900030B50246002000230024158A05EA0103FE
:103CA000958905EA010413B10CB1012000E0002060
:103CB00030BD000070B505460C46244885420ED044
:103CC000234885420BD0B5F1804F08D0214885426A
:103CD00005D02148854202D02048854200D100E02D
:103CE00000BF208850B92389A28861882846FEF742
:103CF0006DFAE188284600F03CF825E02088042889
:103D00000AD12389A28861882846FEF79FFAE188B4
:103D1000284600F037F817E0208808280AD12389C0
:103D2000A28861882846FEF7DDFAE188284600F07F
:103D300036F809E02389A28861882846FEF71AFB35
:103D4000E188284600F034F870BD0000002C0140E6
:103D5000003401400004004000080040000C004016
:103D60001AB183890B43838102E083898B4383816A
:103D70007047028B4FF6F3731A400283028B0A439B
:103D800002837047028B4FF2FF331A400283028B8B
:103D90004FF6FF7303EA01231A4302837047828BB5
:103DA0004FF6F3731A408283828B0A4382837047F3
:103DB000828B4FF2FF331A408283828B4FF6FF7360
:103DC00003EA01231A43828370470000002202881D
:103DD0001D4B98420ED01D4B98420BD0B0F1804F36
:103DE00008D01B4B984205D01A4B984202D01A4B70
:103DF000984204D14FF68F731A404B881A43174BE1
:103E0000984207D0164B984204D04FF6FF431A4011
:103E1000CB881A4302808B8883850B8803850A4BE5
:103E200098420BD0094B984208D00E4B984205D0CF
:103E30000D4B984202D00D4B984201D10B7A03866C
:103E40000123838270470000002C014000340140B0
:103E50000004004000080040000C0040001000403A
:103E6000001400400040014000440140004801406F
:103E70001FB5044601214804FDF7E0FA0021174868
:103E800000F0B3FA00940020ADF80400ADF806008D
:103E9000ADF80800ADF80C000C20ADF80A0069463A
:103EA0000E4800F007FB012240F226610B4800F0AB
:103EB000DBFA012240F22441084800F0D5FA012241
:103EC0004021064800F09DFA01228021034800F0BD
:103ED00098FA0121014800F088FA1FBD0044004013
:103EE00010B58EB0044601210846FDF797FA01216E
:103EF0000520FDF7C3FA0420ADF8340003208DF847
:103F0000360018208DF837000DA93548FCF74AFD1A
:103F10000820ADF8340004208DF837000DA9304892
:103F2000FCF740FD2046FFF7A3FF4FF4A060FCF72D
:103F3000B7FF26208DF8300001208DF833000220D5
:103F40008DF8310001208DF832000CA8FCF770FFCD
:103F50002448FCF747FC24480190244802900020A4
:103F60000390802004900020079005900890802006
:103F7000069000200B9009904FF440500A9001A940
:103F80001848FCF7EFFC01211648FCF71FFC154808
:103F90001430FCF727FC1448019014488038029034
:103FA0001020039000200490079005900890802036
:103FB0000690002009904FF400500A9000200B90CA
:103FC00001A908481430FCF7CDFC00210548143045
:103FD000FCF7FCFB4FF08070FCF7EAFB0EB010BD65
:103FE000000801406C000240044400409E1700207D
:103FF00070B540F226611A4800F00CFA58B1402121
:10400000174800F0E9F91748D0F8F40320F48001CC
:104010001448C0F8F41340F22441114800F0FAF9B2
:10402000E8B100211048FCF7D1FB0D480088C5B26B
:104030000B48001D0088C5B20B48FCF779FCC0F1A5
:104040008000C4B22146094800F012F880210648D9
:10405000FCF7A6FC01210448FCF7B8FB00BF70BDCB
:1040600000440040001300206C0002409E17002016
:1040700070B504460D46207842287DD1607811281D
:104080007BD2DFE800F009132B3F6378C0CDE6F464
:104090007A7A7A7A7A7AF300042D06D1A078902879
:1040A00003DAE178A278BC48815442E1062D14D1AC
:1040B000A078302811DAE278A07800EB4000B64909
:1040C0000A542279A07800EB4000401C0A5462791F
:1040D000A07800EB4000801C0A542AE1042D10D186
:1040E000A07804280DDA002009E0E278A17801EB3D
:1040F000C10100EB8103A849CA54411CC8B224285D
:10410000F3DB00BF062D20D1A07804281DDA0020A3
:1041100019E0E378A17801EBC10100EB81019E4A2F
:1041200053542379A17801EBC10100EB8101491CB3
:1041300053546379A17801EBC10100EB8101891C23
:104140005354411CC8B22428E3DB00BF032D11D116
:1041500000200DE0A27890490A54A27824310A5434
:10416000A27824310A54A27824310A54411CC8B2DE
:104170002428EFDB00BF01E0E2E0D9E0052D41D1CA
:1041800000203DE0A37800EB4001834A5354E378DC
:1041900000EB4001491C5354237900EB4001891C7A
:1041A0005354A37800EB400124325354E37800EBDE
:1041B0004001491C5354237900EB4001891C53549E
:1041C000A37800EB400124325354E37800EB400124
:1041D000491C5354237900EB4001891C5354A378A4
:1041E00000EB400124325354E37800EB4001491CBA
:1041F0005354237900EB4001891C5354411CC8B22D
:104200000C28BFDB95E0A07820B14FF470406349E3
:10421000086004E04FF470406049091D086088E0C0
:10422000A0785F490872E1785E4880F8E813217948
:10423000D0F8F40361F303005A49C1F8F40361793B
:104240005848D0F8F40361F307105649C1F8F40355
:104250006FE05448D0F8F403C0F3034040B10128A4
:1042600013D002281DD0032835D127E052E03EE0CC
:10427000A078012808D0A1784A48D0F8F40361F367
:104280000F304849C1F8F4032FE0A07840B1A1787D
:104290004448D0F8F40361F30F304249C1F8F40305
:1042A00023E0A078032808D0A1783E48D0F8F40392
:1042B00061F30F303B49C1F8F40316E0A0780228FF
:1042C00008D0A1783748D0F8F40361F30F303549AE
:1042D000C1F8F40309E0A1783248D0F8F40361F39F
:1042E0000F303049C1F8F40300BF00BF21E0E1788E
:1042F0002C48D0F8F40361F3CB202A49C1F8F40329
:1043000021792848D0F8F40361F349202549C1F800
:10431000F4030EE0A0782449098860F307112248CD
:104320000180008820F00700401C1F49088000E041
:1043300000BF00BF80211C48823000F037F829E020
:1043400020784F2810D160784B280DD1A0780D2807
:104350000AD1E0780A2807D11348008820F0070026
:10436000801C1149088015E020782B2812D1607834
:1043700042280FD1A07841280CD1E078552809D1E6
:104380002079442806D10848008820F00700C01C86
:104390000549088070BD000035000020100C014068
:1043A00000030020001300201C17002070B50546F4
:1043B0000C4600210748FCF709FA06480C30056056
:1043C00004488038C0F8844001210248FCF7FEF917
:1043D00070BD00008000024001F40072B2F5007F61
:1043E00000D100BFCA430280704721B1828942F4E4
:1043F0000052828104E082894DF6FF731A40828167
:1044000070471AB1838A0B43838202E0838A8B430D
:104410008382704770B502460024002300250020E7
:1044200040F66A16B14200D100BFC1F3421501F057
:104430001F03012606FA03F3012D02D196893340AA
:1044400006E0022D02D1168A334001E0968A3340FD
:104450000C12012606FA04F41688344013B10CB18C
:10446000012000E0002070BDF0B5034600240026C6
:104470000025002040F66A17B94200D100BF184657
:10448000C1F3421401F01F06012707FA06F5012CBB
:1044900001D10C3004E0022C01D1103000E01430C6
:1044A0001AB107682F43076002E00768AF4307604F
:1044B000F0BD00002DE9F04786B005460E46002409
:1044C000A24600BFA1460027B08900B100BF2F4619
:1044D0002C8A4CF6FF700440F08804432C82AC898F
:1044E0004EF6F3100440B0883189084371890843BF
:1044F0000443AC81AC8A4FF6FF400440B0890443CA
:10450000AC8201A8FCF7CAFF1F48874202D1DDF840
:1045100010A001E0DDF80CA0A88900F4004040B133
:104520000AEBCA0000EB0A1031684900B0FBF1F851
:1045300007E00AEBCA0000EB0A1031688900B0FB03
:10454000F1F86420B8FBF0F004012009642101FBBC
:104550001089A88900F4004040B1322000EBC90066
:10456000B0FBF1F000F00700044308E0322000EB5C
:1045700009106421B0FBF1F000F00F0004432C811E
:1045800006B0BDE8F0870000003801400FB4084BCA
:1045900010B504A902AA039800F01CF8044602A969
:1045A000002000F0B8F9204610BC5DF814FB0000B4
:1045B0001749000802E008C8121F08C1002AFAD1F2
:1045C00070477047002001E001C1121F002AFBD193
:1045D000704700002DE9FF4F8BB088460546002646
:1045E00006E025280BD0DDE90D1290476D1C761CE6
:1045F00028780028F5D10FB03046BDE8F08F0024B0
:10460000A146A2460122AE4900E0044315F8013F4D
:10461000203B02FA03F00842F7D128782A2810D06C
:104620006FF02F022878A0F13001092915D809EB85
:10463000890102EB410144F0020400EB01096D1C09
:10464000F0E758F8041B5FEA010903D544F400546D
:10465000C9F1000944F002046D1C28782E2817D1F6
:1046600015F8010F44F004042A280ED06FF02F0231
:104670002878A0F1300109290AD80AEB8A0102EB57
:10468000410100EB010A6D1CF2E758F804AB6D1C08
:1046900028786C280FD006DC4C2817D068280DD05D
:1046A0006A2814D104E0742810D07A280FD10DE0C4
:1046B00044F400140AE044F4801401E044F440148B
:1046C0006978814202D104F580146D1C6D1C287834
:1046D000692865D006DC00288DD0632827D064289F
:1046E00006D15DE06E2808D073282AD0752877D0CF
:1046F000DDE90D129047761CE0E0C4F30250022879
:1047000009D003280DD0D8F8001004280DD00E6071
:1047100008F10408D2E0D8F80010F217C1E90062ED
:10472000F6E7D8F800100E80F2E70E70F0E718F800
:10473000041B8DF8001000208DF80100EB460120CD
:1047400003E058F804BB4FF0FF3061074FF000075B
:1047500001D40AE07F1C57450DDA8742FADB1BF8CB
:1047600007100029F6D106E07F1C8742FCDB1BF80E
:1047700007100029F8D1DDE90D23A9EB07008146D8
:10478000214600F0B1F83044C61904E0DDE90D120D
:104790001BF8010B90477F1EF8D22146484688E05F
:1047A00058F8040BC4F302514FF00A0B032900D14F
:1047B00000B2042900D140B2002802DA40422D2183
:1047C00002E0210505D52B218DF82410012104E0FC
:1047D00006E0E10710D02021F6E708AF089113E0CA
:1047E00058F8040BC4F302514FF00A0B032900D10F
:1047F00080B2042900D1C0B20021EEE75946FBF790
:10480000BCFC303107F8011D0028F7D1ADEB0700E3
:1048100000F1200B600702D524F4803401E04FF052
:10482000010ADA4502DDAAEB0B0000E00020824617
:1048300000EB0B0108980144A9EB01000A90E0038A
:1048400006D4DDE90D2321460A9800F04DF8064410
:104850004FF0000908E009A911F80900DDE90D127F
:10486000904709F10109761C08998945F3DBE003BB
:104870000CD5DDE90D2321460A9800F035F80644F1
:1048800004E0DDE90D1230209047761CBAF10001FA
:10489000AAF1010AF5DC05E0DDE90D1217F8010BBC
:1048A0009047761CBBF10001ABF1010BF4DC0A98D8
:1048B0002146DDE90D2300F005F806446D1C97E65E
:1048C000092801002DE9F041044600251E4617463F
:1048D000880404D405E039462020B0476D1C641ECE
:1048E000F9D52846BDE8F0812DE9F04104460025C0
:1048F0001E469046C80301D5302700E020278804D3
:1049000004D505E041463846B0476D1C641EF9D514
:104910002846BDE8F0810A68531C0B601070704790
:1049200007E0002101E04A1C91B242F62E029142BA
:10493000F9DB0100A0F1010290B2F2D17047000052
:1049400010B5002821D0114B0022001F196803E088
:10495000814203D80A4649680029F9D152B1136847
:10496000841A9C4204D1006818441060104602E08A
:10497000506000E0186039B102680B1A934203D10D
:104980000B681A4402604968416010BDF8020020BB
:1049900008B54820FDF7CCFBFCF793F8FCF7E8FDE1
:1049A000FBF704FD4FF41650FFF79AFAFCF782FA72
:1049B0004FF4FA60FDF72AFDFFF748F84FF4FA705C
:1049C000FFF716F9002010E0002200EB40035E49DB
:1049D000CA5400EB400319444A70102200EB400314
:1049E000594919448A70411CC8B23028ECDB4FF693
:1049F000FF715648A0F89610202100F5805080F8ED
:104A0000E81321205149087430208874002008726E
:104A1000402008731020887301F58050D0F8F4030B
:104A200020F00F014A48C0F8F413D0F8F40320F046
:104A3000F0014748C0F8F413D0F8F40320F40071F3
:104A40004348C0F8F413002180F8EE13FF203E49DC
:104A500096314870032088703D48D0F8F40320F464
:104A6000704000F580403A49C1F8F4030846D0F898
:104A7000F40320F4702000F58020C1F8F40301F263
:104A8000EE30FCF74DFF5DE03048001DFCF71AF8F2
:104A90002F48B0F8F403C0F3C020D8B12C48D0F8A8
:104AA000F40320F470412A48C0F8F413D0F8F4035A
:104AB00020F470212648C0F8F413D0F8F40320F451
:104AC00000612348C0F8F413FCF7BCFF1E48963081
:104AD000FCF726FF1E48B0F8F403C0F303300328A8
:104AE00006DC1B49B1F8F413C1F30330FDF744F8B9
:104AF0001848007800F0070018B11648FBF744FD8D
:104B00001DE01348D0F8F403C0F38050B8B9104842
:104B1000D0F8F40320F4800000F580000C49C1F8BF
:104B2000F4030A48006800900848C38882880AA1F4
:104B30001048FFF72BFD28210E48FFF737FC3220E5
:104B4000FFF7EEFEA0E7000058160020000300204B
:104B5000001300201C170020416463303D2534649D
:104B60002C416463313D2534642C53706565643D8C
:104B70002536640053020020F0B50B30154D20F0AF
:104B800007010024144A0FE003688B420BD38B42C9
:104B900005D95E1A43184768C3E9006700E0436817
:104BA000136002C004E0021D10680028ECD120460A
:104BB000002802D1286808B10020F0BD064A074845
:104BC0001060074A121A22F00702C0E900240120EF
:104BD0002860D7E7FC020020F8020020A41800207B
:104BE000A038002041540D0A000000000000000021
:104BF00000000000000000000000000000000000B5
:104C000000000000000000000000000000000000A4
:104C10000000000000000000000000000000000094
:104C20000000000000000000000000000000000084
:104C30000000000000000000000000000000000074
:104C40000000000000000000000000000000000064
:104C50000000000000000000000000000000000054
:104C60000000000041540D0A000000000000000098
:104C70000000000000000000000000000000000034
:104C80000000000000000000000000000000000024
:104C90000000000000000000000000000000000014
:104CA0000000000000000000000000000000000004
:104CB00000000000000000000000000000000000F4
:104CC00000000000000000000000000000000000E4
:104CD00000000000000000000000000000000000D4
:104CE0000000000041542B44454641554C540D0AE8
:104CF00000000000000000000000000000000000B4
:104D000000000000000000000000000000000000A3
:104D10000000000000000000000000000000000093
:104D20000000000000000000000000000000000083
:104D30000000000000000000000000000000000073
:104D40000000000000000000000000000000000063
:104D50000000000000000000000000000000000053
:104D60000000000000000000000000000000000043
:104D70000000000000000000000007FC07C4000065
:104D80000000000000000000030002000200030019
:104D9000000000000090009C03F00090009C03F0D5
:104DA0000090009000000398028C07FE0244033C30
:104DB000011800000180024403D800E000B8032479
:104DC000003C00000010003803C402640394030890
:104DD0000038000000000000000003000000000098
:104DE00000000000000000000000000001F80204C4
:104DF0000402000000000406020C01F000000000A4
:104E00000000000001000140014003F003F00140F8
:104E10000140010000400040004001F0004000401F
:104E20000040004000000005000E000000000000EF
:104E300000000000004000400040004000400040F2
:104E4000004000000000000400040000000000001A
:104E50000000000000040008001000600080010055
:104E600006000000000001F8020C0204020402081F
:104E700001F8000000000100010003FC03FC000039
:104E8000000000000000030C020C0214022402C403
:104E9000018400000000010802040244024402AC44
:104EA00003B800000010003000500090031003FC15
:104EB00000100010000001C802440284028402486D
:104EC000027800000000007800CC01440244004455
:104ED00000780030000002000204023C02600380FF
:104EE00003000000001003B802440244024402AC74
:104EF00001B80000018003C00224022C02300260CD
:104F000001C0000000000000000000440044000058
:104F10000000000000000000000000460044000007
:104F2000000000000000004000A0009001080208FE
:104F300002040000008000A000A000A000A000A0CB
:104F4000008000000000020402080108009000A098
:104F5000004000000000030002000224026403C0BD
:104F60000180000000F0010802F40294033403D42D
:104F700003F000000004003C00E003A003A000F0E8
:104F8000001C0004000003FC02440244024402CC62
:104F900001B80000000001F8030C02040204020C36
:104FA00003980000000003FC02040204020403084A
:104FB00001F00000000003FC0244024402440244E9
:104FC00002440000000003FC024002400240024094
:104FD00002000000000001F8020C02040224022872
:104FE00001BC0000000003FC004000400040004005
:104FF00003FC000000000000000003FC03FC0000B4
:105000000000000000000018000C00040004000C68
:1050100003F80000000003FC004000C0017003180A
:10502000020C0000000003FC000400040004000463
:1050300000040000000003FC03C0003C007C03C02F
:1050400003FC0000000003FC038000C00030001CD3
:1050500003FC0000006003F8020C02040204020CCE
:1050600001F80000000003FC0220022002200240A0
:1050700003C00000006003F8020C02040214020CDA
:1050800001FC0000000003FC0240024002600258E4
:1050900003CC00000000039802C402440244032C25
:1050A0000138000000000200020003FC03FC0200C3
:1050B00002000000000003F8000C00040004000CD3
:1050C00003F800000200038000F0001C003C00E038
:1050D00003800000030003FC007C03C003E0001C0D
:1050E00003F802000004020C039800E000E003183B
:1050F000020C0000000003000180007C00FC018025
:10510000020000000000020C0234026402C40384A6
:105110000204000000000000000007FE0402040278
:105120000002000000000600018000400030000C7A
:1051300000020000000000020402040207FE00005A
:105140000000000000000000040008000800040047
:105150000000000000010001000100010001000149
:10516000000100010000000008000C000400020023
:10517000000000000000005C005400940094007CDB
:10518000007C0000000003FC004800840084004C08
:105190000078000000000078004400840084004C87
:1051A00000480000000000780044008400840048AB
:1051B00003FC000000000078006400A400A4006C60
:1051C0000068000000000000004003FC02400240B4
:1051D000020000000000006E00550095009500756B
:1051E00000860000000003FC00400040008000C07A
:1051F000007C0000000000000000027C027C000037
:10520000000000000000000200010001027E027E9A
:1052100000000000000003FC0010002000700048A7
:105220000004000000000000000003FC03FC00007C
:1052300000000000007C007C004000FC007C00407E
:1052400000FC007C0000007C00400040008000C0AA
:10525000007C000000000078004C00840084004CBA
:10526000007800000000007F004400840084004CAF
:1052700000780000000000780044008400440048EA
:10528000007F000000000000007C00400040008023
:1052900000000000000000680064009400940054C6
:1052A0000058000000000040004001FC00440004E1
:1052B000000400000000007800040004000400085E
:1052C000007C0000000000400030000C001C00705A
:1052D0000040000000400078001C00600070000CDE
:1052E0000078000000000004004800300030004C4E
:1052F00000040000000000410031000E001C00709E
:10530000004000000000000C004C00540064004409
:1053100000040000000000000000000007FC07BEC1
:10532000000200000000000000000FFF0FFF00005F
:10533000000000000000000207FE00400000000026
:105340000000000000000C00080008000400040039
:105350000800000074530008000000200003000053
:10536000CC010008EC54000800030020A045000018
:10537000C4450008C123580223B00423600923C098
:1053800012338025324B329632E163C201C40F0FD3
:105390000F1A0702D11920290109682421C2FF50E0
:1053A0001D01100510092207FE09200940094411BA
:1053B000080FF80118092405C40502010E18180485
:1053C00005D805400D7E0D4005D0050A0104017881
:1053D0000F8001FC050220520612421244180848B0
:1053E0000FF00D680D440210087C0D520CD20F52C4
:1053F000290252401220100A22012208A204240687
:105400002814380FF012301A280212246246100BAA
:1054100008080BC8085008520FD2127C180B460718
:10542000F8048014800C8004023B0380C51808F047
:10543000042007E404081A180A9004E007FE15681F
:105440000CB00C76C404B004081210021A1C140725
:10545000FE08401909100E90087404480590064093
:105460000C4205FE044004500448040C12011508C7
:105470008E0438081622C0031002100A900690030A
:10548000FE02900E900A90029002102031168008C1
:10549000FC0404120A10103203C40E580220023C0D
:1054A0000E4203E20202620E100B03FE04440A44A1
:1054B000024403FE180980018006400A20020134DC
:1054C00003FC0200157A303132333435363738393F
:1054D0004142434445464748494A2D0102030404DA
:0C54E000F0090607080902040608000095
:04000005080000ED02
:00000001FF
